:020000041000EA
:1000000000B5324B212058609868022188439860DF
:10001000D860186158612E4B002199600221596106
:100020000121F02299502B49196001219960352056
:1000300000F044F80222904214D00621196600F024
:1000400034F8196E01211966002018661A6600F04E
:100050002CF8196E196E196E052000F02FF8012189
:100060000842F9D1002199601B49196000215960AB
:100070001A491B48016001219960EB211966A021F2
:10008000196600F012F800219960164914480160C1
:100090000121996001BC002800D000471248134993
:1000A000086003C880F30888084703B5996A0420EC
:1000B0000142FBD001200142F8D103BD02B5186610
:1000C0001866FFF7F2FF186E186E02BD00000240BE
:1000D000000000180000070000035F00212200005C
:1000E000F4000018222000A00001001008ED00E03C
:1000F00000000000000000000000000074B24E7A12
:1001000000200420F7010010C3010010C5010010F9
:10011000C1010010C1010010C1010010C101001097
:10012000C1010010C1010010C1010010C701001081
:10013000C1010010C1010010C9010010CB01001065
:10014000CD010010CD010010CD010010CD01001037
:10015000CD010010CD010010CD010010CD01001027
:10016000CD010010CD010010CD010010CD01001017
:10017000CD010010CD010010CD010010CD01001007
:10018000CD010010CD010010CD010010CD010010F7
:10019000CD010010CD010010CD010010CD010010E7
:1001A000CD010010CD010010CD010010CD010010D7
:1001B000CD010010CD010010CD010010CD010010C7
:1001C00000BE00BE00BE00BE00BE00BEEFF3058054
:1001D000103800BEF2EB887108A4011028A40110A9
:1001E0003802001090A31AE71E481F49086006C88D
:1001F00081F3088810471D480068002801D019487D
:10020000F3E70DA40ECC002902D000F012F8F9E7B4
:100210001749184A002000E001C19142FCD116495B
:100220008847164988471649884700BEFDE701C937
:1002300001C29A42FBD3704728A40110C0000020DD
:10024000CC1E002034C20110000004200000042055
:1002500034C201100010042000100420000000002F
:10026000704700000000000008ED00E0000000D032
:10027000CC1E0020EC7B002039530010B10C001084
:1002800031530010F8B5C0460448054B10B5834201
:1002900003D0044B002B00D0984710BDCC1E00208B
:1002A000CC1E00200000000006480749091A8B10E8
:1002B000C90FC91810B5491003D0044B002B00D04A
:1002C000984710BDCC1E0020CC1E0020000000006E
:1002D00010B5074C2378002B09D1FFF7D5FF054B4C
:1002E000002B02D0044800E000BF0123237010BDA2
:1002F0008069002000000000F08B0110054B10B554
:10030000002B03D00449054800E000BFFFF7CCFFF5
:1003100010BDC0460000000084690020F08B011071
:1003200070B50C0001F032FD00230B4A06000D00F1
:1003300002F0B2F8002320606160074A3000290013
:1003400002F0AAF8100053019B1A9A001218D2006A
:100350000020A26070BDC04640420F0010B5054CA1
:100360002378002B01D1012010BD05F0E5F8002312
:100370002370F8E7C00F002001207047F0B5C64693
:100380000F001600984600B5002A0ED0002402E0A7
:100390000134A64209D03D5D280005F01DF98542D3
:1003A000F6D00123424626001370300080BCB846C8
:1003B000F0BDC046F0B5C64600B517001C00884623
:1003C00001F0E4FC02000B00002F23D06101091BA7
:1003D00089000919C9000C00CD17A4185D41002639
:1003E00008E005F0ADF8831C0DD043469855013662
:1003F000B7420BD001F0CAFC22002B00121A8B412D
:100400001000002BEDDA0123069A1370300080BC37
:10041000B846F0BD0026F9E7F0B5C64600B58046FF
:100420008EB0100019006D4A6D4B02F06EFA6B4AE7
:1004300004000D0014981599694B02F066FA674A9A
:1004400006000F0016981799654B02F05EFA00221D
:1004500000900191634B2000290002F038FA00223D
:10046000614B02F052FA04000D0002F01BFB0490F5
:1004700005912000290002F02BFB00220690079135
:10048000584B3000390002F022FA0022564B02F09D
:100490003CFA04000D0002F005FB06000F002000EE
:1004A000290002F015FB002208900991009801999B
:1004B0004C4B02F00CFA00224B4B02F026FA0400DF
:1004C0000D0002F0EFFA009001912000290002F0E7
:1004D000FFFA32003B0002900391049805990C96B4
:1004E0000D9702F012FA089A099B06000F00069871
:1004F000079902F00AFA009A019B0A900B913000CA
:10050000390002F002FA029A039B04000D000A98D7
:100510000B9902F0FAF902000B002000290002F00A
:10052000CDF9434618605960029A039B30003900A8
:1005300002F0EBF9009A019B04000D000A980B9958
:1005400002F0E3F902000B002000290002F0ADF9EF
:1005500043469860D9600C9A0D9B0698079902F063
:10056000D4F9089A099B04000D000498059902F03B
:10057000CCF9029A039B06000F002000290002F02C
:10058000C4F9009A019B049005913000390002F0F3
:10059000BCF902000B000498059902F08FF943465C
:1005A00018615961009A019B2000290002F0ADF901
:1005B000029A039B04000D003000390002F0A5F9F7
:1005C00002000B002000290002F06FF943469861F9
:1005D000D96140460EB080BCB846F0BD182D4454D9
:1005E000FB210940008066400000E03F30B587B045
:1005F0006A461D4B938201F0C9FBFA220023920048
:1006000080185941002927DB0025184C05AA022330
:100610000290039100956821200007F0F1FD64200D
:1006200001F0F0FA6B465D7501F0B0FBFA22002391
:10063000920080185941002912DB00230290039197
:1006400000936821023305AA200007F0D9FD0A2093
:1006500001F0D8FA07B030BD012005494042D3E788
:10066000012003494042E8E76B80FFFF841000202F
:10067000FFFFFF7FF0B5DE464E4657464546002356
:10068000E0B595B00CAC0C9306AAA3803B33D375B0
:10069000060001F07BFBFA220023920080185941EA
:1006A000002900DA24E20290039106A901238C4676
:1006B0001722F54D009362446821280007F0A0FD41
:1006C00001F064FBFA2200239200801859410029AE
:1006D00000DA21E2002302900391220068210093B6
:1006E0002800063307F0B0FD638806AADBBA9846F7
:1006F000A3882788DBBA99464323D37501F046FBCC
:10070000FA220023920080185941FFBA002900DA2A
:10071000FEE10290039106A901238C461722009363
:1007200062446821280007F06BFD01F02FFBFA22DC
:100730000023920080185941002900DAE4E10023E7
:10074000029003912200682100932800063307F0ED
:100750007BFD238806AADBBA9B466388DBBA079336
:10076000A388DBBA08934123D37501F00FFBFA226B
:100770000023920080185941002900DAC0E102905C
:10078000039106A901238C46172200936244682135
:10079000280007F035FD01F0F9FAFA220023920053
:1007A00080185941002900DAA6E1002322000290B6
:1007B0000391009368210233280007F045FD3800BB
:1007C00003F098F8E221890503F087F8AF4903F0B8
:1007D00084F8051C404603F08DF8E221890503F0FA
:1007E0007CF8AA4903F079F8071C484603F082F820
:1007F000E221890503F071F8A44903F06EF88246FE
:10080000584603F077F8A24903F053F8A14903F0E2
:1008100064F80490079803F06DF89D4903F049F8D7
:100820009C4903F05AF883460790089803F062F851
:10083000974903F03EF8974903F04FF88023984614
:1008400081460890B044049803F0AEF8434618601F
:100850005960882398465846B04403F0A5F84346AB
:1008600018605960902398464846B04403F09CF8BD
:10087000434618605960E0239846281CB04403F0B2
:1008800093F8434618605960E8239846381CB044F2
:1008900003F08AF8434618605960F02398465046A2
:1008A000B04403F081F843461860596001F06EFAD5
:1008B000002900D113E1FA220023920001F0ECFD9F
:1008C0008146FA214846890001F0A8FD0A00490145
:1008D000891A8B01591AC900891889014846716023
:1008E00002F07EF86C4B002201F0F1FF02F094F868
:1008F0006A4B306018689B46002800D1F5E04B46F3
:10090000181A02F0F1FF664902F0D3FF80464A460A
:100910005B4651461A60504602F0DFFF8246291CB2
:10092000281C02F0DAFF514602F0C0FF03F046F83F
:10093000011C381C02F0BDFF03F08CF8391C814605
:10094000381C02F0CAFF514602F0B0FF03F036F83F
:1009500080231B06011CE81802F0ABFF03F07AF8B5
:1009600050490990049802F0B8FF4F4902F0A1FFE6
:100970004C49071C079802F0B0FF4B4902F099FF61
:100980004849051C089802F0A8FF474902F091FF6A
:1009900046498246381C02F089FF414602F09DFF1D
:1009A000434B9B46196802F081FF5B46071C1860A9
:1009B0004049281C02F07AFF414602F08EFF3E4B70
:1009C0009B46196802F072FF5B46FA211860051C0D
:1009D0008905504602F06AFF414602F07EFF374B20
:1009E0009846196802F062FF4346186002F0DCFF87
:1009F0000490059148462B4902F06FFF2A4902F006
:100A000058FF2F4902F04FFF2E4902F066FF2E4992
:100A10008046381C02F061FF011C404602F046FF90
:100A200002F0C2FF0290039109981E4902F055FF9F
:100A30001D4902F03EFF254902F038FF214902F02E
:100A40004CFF2149071C281C02F047FF011C381CE1
:100A500002F02CFF02F0A8FF049A059B0090019180
:100A60002000FFF7D9FCA268E368B261F361226954
:100A7000636932627362A369E469B362F4620C9BD6
:100A80000D9C3363746323E0841000200AE81C414A
:100A90000000034335FA8E3C00408F40786A002006
:100AA00000007A4400003443DB0F49400AD7A33CDE
:100AB000706A0020D5787940746A00207C6A002032
:100AC000E17A143F0AD7233D8FC2753F713DCA3F7B
:100AD00015B0F0BCBB46B246A946A046F0BDFA210F
:100AE000890001F09BFC8146EBE6002398460EE767
:100AF00001200B494042D6E501200949404254E615
:100B00000120074940423AE601200549404216E6E5
:100B1000012003494042FCE5012001494042D9E55A
:100B2000FFFFFF7F10B5054C2000FFF7A3FD00225B
:100B30002100034807F092FC10BDC046D01E0020E3
:100B4000307A002010B507F0A3FB1F211A2000F017
:100B5000A3F9002200211A2000F0B8F900211A2080
:100B600000F0CEF91F211B2000F096F90022002191
:100B70001B2000F0ABF900211B2000F0C1F901227D
:100B800000211A2000F0A2F9012200211B2000F010
:100B90009DF9012200211C2000F098F91F211C2042
:100BA00000F07AF9002200211C2000F08FF90021CA
:100BB0001C2000F0A5F9642001F024F810BDC04607
:100BC000F0B557464E464546DE462A4BE0B59B46B5
:100BD0001F00294B80259A46284B00269946284B12
:100BE000284C984683B06D00226833035340E022BE
:100BF000D2011340244A1360434604221A6023683A
:100C00002B42FCD064200021636800F0E9FF4346DA
:100C100004221A6023682B42FCD0534661681B688B
:100C20000A0401933B68120C9C461000019A604430
:100C300094464A46F30063445B00D25A0136821A56
:100C400004C74A46D152032ECED107230198013062
:100C50001840534618605B46986802F045FEF8213C
:100C6000890502F03AFE03B0F0BCBB46B246A94685
:100C7000A046F0BD186A0020E4690020E869002061
:100C800000E0044000C0044000D0044010B5FFF76D
:100C900097FF054C206001F001FA00222100034873
:100CA00007F0DCFB10BDC046507A00206C6A0020C3
:100CB000F0B5C64600B588B004F03EFC494B0021B3
:100CC0000193494B01200093484A494B08F0A8FB87
:100CD000FA207821800008F0BDFB002800D07CE0DD
:100CE000444D02AC200008F0F9FA2B0007CC07C3F2
:100CF00006CC06C30022404E2B001100300008F045
:100D0000F5F93E4F33003E4A3E49380008F038FAC4
:100D100009F05CFB390002003B4B3C4808F06AFAE2
:100D20003B4B310098463B4B3B4A009340460023E7
:100D300008F094FA394C2B0004223100200007F00F
:100D400011FF4146200007F06DFF3549354807F097
:100D50002DFA0321042000F09FF80321052000F064
:100D60009BF800220121042000F0B0F800220121AC
:100D7000052000F0ABF8FFF7E5FEFFF737FCFA209F
:100D80007821800008F066FB051E05D00120404256
:100D900008B080BCB846F0BD09F09EF939000200E9
:100DA000214B224808F026FA214F224B224A3100DB
:100DB00000933800002308F051FA3900200007F0B2
:100DC00031FFA02229001D48520002F01BFF002322
:100DD00020001B4A08F052F9F9E71A4804F048FCD1
:100DE000D4E7C046B50300107D0300105D0300107A
:100DF00079030010586A0020246A0020D869002076
:100E000058A201100C8C0110188C01106C6A002083
:100E1000E06900208D0C001080F0FA021020002004
:100E2000801A060084100020248C0110307A0020E3
:100E3000347A0020250B001080969800D01E0020E8
:100E400000E1F505F08B011010B5064C200000F014
:100E50000BF82000283000F007F82000503000F098
:100E600003F810BD64750020084B9A220360084BFC
:100E700002614360074B426183603423C360836136
:100E8000002343620362C3617047C0462EC0FEFF69
:100E9000C20E0100ADB2FFFF10B54024084A830026
:100EA0009A181268C0005440C0222240054CA44643
:100EB00063441A60044B9C466044416010BDC046C8
:100EC00004C0014004D00140004001400B4B8000B1
:100ED0009C46604400290ED100230431002A00D131
:100EE0001900802203685201594094460C23604443
:100EF0000B40036070470C210823EFE704C001405A
:100F00008000002905D0064B9C46402360440360C6
:100F10007047044B9C46402360440360F8E7C0469A
:100F200004E0014004F001408023DB051868000F55
:100F30007047C0460FB400B5084883B004F098FB72
:100F4000049B002B07D005A91800019104F086F935
:100F5000034804F08DFB012004F098F9308C011057
:100F6000FCA2011070B5EFF3108C72B60D4D2B681A
:100F7000002BFCD0BFF35F8F0724CB08C618C05CE2
:100F800001230C40A3401C000440034207D103434B
:100F90003370BFF35F8F2C608CF3108870BD10002E
:100FA000FFF7C8FF2C0100D0F8B54746CE4688466B
:100FB00080B5EFF3108C72B6214D2C68002CFCD05C
:100FC000BFF35F8F9A422CD8D4080727055D061916
:100FD00001241740BC402C421FD00721012789461D
:100FE00009E0D408055D06194C4639001440A140BB
:100FF0000C00294211D001329342F2D2012040422A
:10100000BFF35F8F00220E4B1A608CF3108800280C
:101010000FDBC0BCB946B046F8BD2C43100034709D
:10102000EEE7BFF35F8F00232B608CF31088012065
:1010300040424346002BECD00898FFF77BFFC046A8
:101040002C0100D0044A1078431CDBB2172B00D9C6
:10105000102313707047C046C10F002000B5054B28
:1010600083B00100009318221F230348FFF79CFF61
:1010700003B000BD408C0110207100200021044B02
:10108000044ABFF35F8F02C39342FAD17047C04650
:10109000000100D0800100D0054B064A1360064ACB
:1010A000136053609360D360136153619361704721
:1010B0008080808000E400E004E400E01F2318400A
:1010C0001E3B8340002905D0C021044A49005350EB
:1010D00013607047802201498B50FAE700E100E07D
:1010E00001228240034B1B6813405A1E9341D8B221
:1010F0007047C04600E100E001238340014A1360CD
:101100007047C04600E200E0064B10309B6880004C
:10111000C358054A00209B1A2F229A424041C0B270
:101120007047C04600ED00E0C40F002070B50D0010
:10113000EFF3108672B60F4A1368002BFCD0BFF392
:101140005F8F0D4B10309B6884001B590B4A9342F4
:1011500003D09D4201D001F05BF8074B9B681D5105
:10116000BFF35F8FBFF35F8F0022024B1A6086F3DD
:10117000108870BD240100D000ED00E0CD0100100A
:10118000F0B557464E46DE464546E0B585B006000A
:1011900002911700EFF3108B72B6674A1368002BA9
:1011A000FCD0BFF35F8F0025644B5D579A46002D3E
:1011B00000DAA4E06B00624C03935B199B00984635
:1011C000A146C1444B4652469B79103613705D4B85
:1011D000B2009B68019299580B1B2F2B34D95A4BA4
:1011E000994200D0A4E0039B584A9C46584B654462
:1011F000AD006353434602336519E418554B012192
:10120000043B1B1B1B055B0D13436B80524BEF71A3
:10121000AB80FF23AB71029BAB604B460B431900C5
:10122000484B019A9B689950BFF35F8FBFF35F8F64
:101230000022414B1A608BF3108805B0F0BCBB460E
:10124000B246A946A046F0BD01200A008243D379E8
:10125000BB422FD845464E46130040491B1B5B41FD
:101260005943090D3A4B63533A4B02356519043B18
:101270005B1B1B05354D5B0D2B4373800426B44669
:10128000E0444444131F1B1B4C46A17102991B05EB
:10129000A16049465B0D2B43A380314BE7710143AD
:1012A0001360BDE75800C01880002018C679BE4200
:1012B0002BD902000623D356002BF3DA101D8246E9
:1012C0002848804604267642B446E14450464E46BD
:1012D000361A3005400D824656461C489571064325
:1012E0009680039A944665441D4AAD0064192260B5
:1012F0004246A371029BA280E771A36090E700F0D1
:1013000087FF002553465D5754E7101D824690889D
:101310004005001584464046D444664604302018F3
:10132000301AE0260005400D360230438046C9E7FA
:1013300000F06EFF57E7C046240100D0E77B002095
:10134000C40F002000ED00E0CD01001000E0FFFF21
:1013500000A1FFFFF40F002001BDFFFFAAAA0000BB
:101360000148804701BD000070B501240443EFF33C
:101370000581EFF3108C72B6214A1368002BFCD064
:10138000BFF35F8F1F4B05001F4AED1A6D416A4383
:10139000120D1E4D8900AE6852B27658A6421CD07E
:1013A0000621595691421CD012215956914222D001
:1013B0001E215956914220D02A2159560324914288
:1013C00010D0134B19781A708171BFF35F8F002210
:1013D0000B4B1A608CF3108870BDAB680D4C5C50E1
:1013E000EFE700246100091989005B18FF2199715A
:1013F00009499980E5E70124F4E70224F2E7C046B1
:10140000240100D0C40F0020AAAA000000ED00E0D3
:10141000E77B0020CD01001001BDFFFF00B5074BA9
:1014200083B001000093002205230548FFF7BCFDAF
:10143000002801DB1F23181A03B000BD5C8C0110CB
:10144000EB7B0020024B9C466144890001607047A1
:1014500040000034F8B5134D134E2C00FF27B54261
:101460001ED22368002B0FD0FFF7ECFD01002800EF
:10147000FFF7E8FFA780BFF35F8F0834B4420FD2B5
:1014800023682500002BEFD1FFF7DCFD01002800C9
:10149000FFF7D8FF2771BFF35F8F0834B442EFD353
:1014A000F8BDC046C41E0020CC1E002010B50400AC
:1014B000FFF7C8FD01002000FFF7C4FFFF232371E1
:1014C000BFF35F8F10BDC04610B504000120FFF7C9
:1014D000C5FD044B9C46604480002060BFF35F8FD5
:1014E00010BDC04640000034034B9C466144890057
:1014F0000160BFF35F8F7047400000340A4B1968EA
:10150000EFF3108072B60A68002AFCD0BFF35F8F39
:101510001B68BFF35F8F00221A6080F3108840BF02
:10152000002000217047C046DC7A0020F0B5DE467E
:1015300057464E464546E0B585B0EFF30582032396
:1015400013409A0011000392B64A52589046012265
:101550009A409146B44B1A604B46B44843634346A5
:1015600008229B5E9A46002B3DDA43469B881BB2BD
:10157000002B00DBA1E043469B79002B00D0F3E079
:10158000434608241C5F002C23DB4246526963005B
:1015900094461B19DB0063449C68DD68631C00D122
:1015A0000FE1A248039984466144826A0B69A61A36
:1015B0009B1A9E4215D34A46036A1A4211D09B4891
:1015C00000F0DCFB241A8D41002D02DCC4D1002C7C
:1015D000C2D040BF05B0F0BCBB46B246A946A0464B
:1015E000F0BD0C61EBE7424652695B009346534401
:1015F000DB009B445B469E68DF6800F0BFFB801BFE
:10160000B9410029B1DB002F00DAE5E05B46884AEA
:101610001B69934200D1D8E041465A460820085E33
:101620005288000410435A465169984704000D003F
:1016300023002B4300D1CFE0002D00DBE8E0361B78
:10164000AF4134003D005B469C60DD600021595E87
:10165000002900DA89E743465B6922009C462B009B
:1016600048004018C00060448668C768921BBB41B0
:10167000002B00DA79E743466646020000940195A4
:1016800019810CE07B00DB19DB00F318009801994D
:101690009C68DD68001BA941002904DB1A000023B7
:1016A000D75E002FEEDA5B461F8053461380434619
:1016B0009B881BB2002B00DA5DE743461A69EFF303
:1016C000108172B61368002BFCD0BFF35F8F4346C6
:1016D0009B8842461BB29A4601235B429380136962
:1016E000BFF35F8F00221A6081F310885346002BEE
:1016F00000DA40E743465B699C46082343449B4627
:1017000053465F0043465744FF0008229A5E6744F1
:101710005E46BC68FD68002A19DB3B000094019519
:1017200067469C4604E01E000023F25E002A0BDBA5
:101730000098019953009B18DB00FB189C68DD683A
:10174000001BA9410029EEDA6346BC461F00534640
:10175000338000217B5E3A809A46002BD0DA4346E4
:101760009B79002B00D10BE700234246937143463F
:1017700046460821595E08364B1C00D129E74746EA
:101780008C46556902E006004B1C17D04B005B18D5
:10179000DB00E8180A00E95E43881BB2002BF2DA8E
:1017A00001235B42DC178360C4606245ECD031806A
:1017B0003B89944603803A814B1CE7D1B846644686
:1017C000E1E66B1C00D0ECE6F9E65B465C692000C4
:1017D00023699847002821D15B4642461B88138124
:1017E0001269EFF3108372B611680029FCD0BFF3C1
:1017F0005F8F4246594652880A8042465146518080
:101800001269BFF35F8F0021116083F31088ACE68B
:10181000064800F0B3FA24184D4114E765682468BF
:1018200006E7C046747A00203C7005400040054041
:101830002D15001070B52E4C2569002D04D00A21FD
:101840002C48FFF7FFFD70BD2B4E0321300000F048
:101850008BFAE660FFF7F6FB284B03229C46D02369
:1018600022701B061B6801216370254B6044A36036
:101870000F23800020610220638063694942A180B8
:1018800019800231198647311D83585218315A5236
:1018900075325C399952183201319952183201313E
:1018A0009952183201319952083518329D5202313D
:1018B0001832995218320131995218320131995225
:1018C00018320131995218320131995218320131CE
:1018D00099520C4B0C49DC6001303562FFF726FC55
:1018E00001210320FFF7EAFB084B1D60A7E7C04674
:1018F0000C100020DC7A002000400540400000343D
:10190000FFFF1000747A00202D150010386005408C
:10191000004870470C100020F8B51F0008AB1B787A
:1019200004001600002B07D100F030FA32003B0013
:10193000121A8B41002B4CDB2269EFF3108072B638
:101940001368002BFCD0BFF35F8F62690223E15E56
:1019500094464B005B18DB006344002901DB1A88C6
:1019600062802269BFF35F8F0025156080F31088C5
:10197000002930DB069A9E60DF601A61079A5A617F
:101980005A8801325204520C161C002A1FD0B0B2E1
:101990000A045E8010432669EFF3108572B6326840
:1019A000002AFCD0BFF35F8FA2881A80A180236930
:1019B000BFF35F8F00221A6085F3108807492378F0
:1019C0008C4601329A40E36863441A60F8BD0126F0
:1019D000DDE70020FAE701204042F7E73C20000065
:1019E00070B5C646010000B50469EFF3108C72B6FD
:1019F00020680028FCD0BFF35F8F02200D5E48698D
:101A00006C0080466419E4004444002D01DB20880A
:101A100048800869BFF35F8F002606608CF310884A
:101A2000002D30DBE36063880598013320615B049F
:101A300006985B0CA26060611A1C002B21D090B24A
:101A40002B04628018430A69EFF3108672B613689C
:101A5000002BFCD0BFF35F8F8B8823808D800B69B8
:101A6000BFF35F8F00221A6086F310880B78013273
:101A70009A40CB6805498C4663441A6040BCB04626
:101A800070BD0122DBE701204042F7E73C20000067
:101A900010B543890A14934233DD53009B18426901
:101AA000DB00944604696344EFF3108C72B622683D
:101AB000002AFCD0BFF35F8F5A88090494B2090C46
:101AC0008A4208D00369BFF35F8F00221A608CF34B
:101AD0001088002010BD8022120214435C80012374
:101AE00002698371BFF35F8F002111608CF310884E
:101AF000054902788C469340C26801206244136015
:101B0000E8E70020E6E7C0463C2000004078704748
:101B1000F0B504000D0006267642F717C6463619C2
:101B20006F4100B582B08F4214D811D000F02EF969
:101B300032003B00121A8B41002B15DC002B44D0E5
:101B40002000290000F056F902B080BCB846F0BD74
:101B50008642EBD90026002700F018F932003B003E
:101B6000121A8B41002BE9DD00F010F932003B0026
:101B7000121A8B41002B0ADB00230193144B320015
:101B8000009314483B00FFF72BFF0028D8DBB0463A
:101B90000026BC46104A114F7B6A9C4504D8B96A9E
:101BA0008845CDD99C45CBD11168EFF3108072B632
:101BB0000B68002BFCD0BFF35F8F1368BFF35F8F00
:101BC0001E6080F3108820BFE6E7002AB8D0CBE77C
:101BD000FD1400100C100020DC7A002000400540AD
:101BE00070B504000D0000F0D1F80019694100291A
:101BF00002DBFFF78DFF70BD012001494042F8E78D
:101C0000FFFFFF7F70B5060000F0C0F8FA22040065
:101C10000D00002330000021920001F027FE001982
:101C20006941002902DBFFF773FF70BD0120014904
:101C30004042F8E7FFFFFF7FF0B5CE46474680B54C
:101C400004000D0083B0EFF30587002F0DD0364A56
:101C50000020536A8B4203D3926A0130A24250D3D0
:101C600003B0C0BCB946B046F0BD304B9846DB6807
:101C70009946434648461E7800F080F80B004946D6
:101C800002000436B600715820008E1A2900801A0E
:101C900099418F4211DC0ED020BF234A0020536AA5
:101CA000AB42DDD3926A0130A242D9D2E81A421E79
:101CB0009041C0B2D4E78642EED900F067F8220026
:101CC0002B00121A8B41002B20DB00230193184BB1
:101CD0002200009340462B00FFF782FE011E15DD17
:101CE000114B2E005A6A95421CD89B6AA34217D307
:101CF0004046FFF7CDFE0C4A0020536A9E42AFD803
:101D0000D0E7581A421E9041C0B2A9E7064A002007
:101D1000536AAB42A4D3926A0120A242A0D2C5E783
:101D20009542E5D120BFE3E7004005400C100020BC
:101D3000FD140010084A4368516A10B50468002079
:101D40008B4203D8926A0130A24200D310BD5B1AC5
:101D50005A1E9341D8B2F9E7004005400260436043
:101D600000487047351D001010B5024A0248FFF7C1
:101D7000F9F810BD808C0110247100200300416A25
:101D80000A00986A596A8A42FAD17047034B596A25
:101D90000A00986A596A9142FAD17047004005409A
:101DA00070B504000D00124A536A1900966A536A0E
:101DB0008B42FAD13000190024184D41AB4211D8A2
:101DC0000ED02B000A494A6A9A42FCD307D1084A2E
:101DD00002E0516A994202D1916AA142F9D370BDE1
:101DE000A642EED9012301246442E5175B42E9E7EC
:101DF00000400540064A536A9942FCD807D1044B7B
:101E000002E05A6A914202D19A6A8242F9D370473B
:101E100000400540F8B5DE464E4657464546E0B51B
:101E20008B4605000A991800160000F0F7FA0A9B85
:101E30006C001F02324B64199C46A4006444636822
:101E400081469F4200D967602B1FDBB29846012B69
:101E500030D9C02380229B01E31812011A60294B5C
:101E6000AD0059599A4600291BD12268760172406B
:101E7000E0268023164042465B01E3181E60012ADB
:101E800030D9802380229B01E31812011A60534647
:101E90004A4667605A51F0BCBB46B246A946A046C6
:101EA000F8BD586900F0BAFA431C5800C01803384E
:101EB000FDD2DAE75B46012BCBD1C02303229B0185
:101EC000E3181A60023AA3681A42FCD0E0232268A1
:101ED000760156401E4080230A4A5B019246E31871
:101EE0001E60AD005A462168514003220A401A6024
:101EF00001225B469A40A3681A42FCD0C1E7C04663
:101F00000080004038710020F0B546464F46D64666
:101F1000C0B51F00344B44009C462418A400644400
:101F2000636888461600FF2B02D880235B0063603D
:101F3000031FDBB29A46012B30D9C02380229B01BC
:101F4000E31812011A60294B850059599946002956
:101F50001BD1226876017240E0268023164052464B
:101F60005B01E3181E60012A30D9802380229B0187
:101F7000E31812011A6080235B0063604B465F51D7
:101F8000E0BCBA46B146A846F0BD586900F046FA32
:101F9000431C5800C0180338FDD2DAE74346012B32
:101FA000CBD1C02303229B01E3181A60023AA36835
:101FB0001A42FCD0E0232268760156401E4080235E
:101FC0000A4A5B019146E3181E608500424621687B
:101FD000514003220A401A60012342469340A268FE
:101FE0001342FCD0C1E7C046008000403871002099
:101FF000014B8000C058704738710020F8B50400CC
:1020000020481D0017000E0000F008FA01003800FB
:1020100000F004FA069B29041B0319432368002BD4
:102020001EDB194B194DE21853425A4180235B01C4
:102030009C461203164B62441A60164B1A60170036
:102040002B689F43FBD1144B2660E2182123A0602C
:1020500013602368002BFCDA0823E1601360F8BDED
:102060003F2322681340B342DBD1A3681B051B0D3D
:102070008342D6D1EE22E368D20213408B42D0D104
:10208000EDE7C046001BB7000040FDBF08C00040A0
:1020900000E0004000F0004004300000024B1A68ED
:1020A000024B5A607047C0464C7A002000800540C1
:1020B00010B5140080221B4BD2051A6000281AD0DC
:1020C0000123194A1843194BDA61194A42401A622E
:1020D000596298628022134BD2051A601549164A3C
:1020E0001160E022D2041A60002C07D18022134B29
:1020F00012061A6010BD0D4BD861EBE763011B1B84
:102100009A008023121912015B049A4200D30C4AF0
:102110000C4B1A60054B5A608022084BD2051A609E
:10212000E8E7C04600B00540D3C007B000800540D6
:102130002D3FF84FFCFF01000820014000A00540A2
:10214000FFFFFF004C7A00208023024A9B000B43D4
:10215000D362704700800540142310B50100188831
:1021600004331B88984710BD162310B5010018884A
:1021700002331B88984710BDF8B54746CE4680B558
:102180000F1E19D01423994604330400002501269C
:1021900098464B461888434621681B88984701C4D7
:1021A000431E9841013540420640AF42F1D1300014
:1021B000C0BCB946B046F8BD0126F8E7142370B597
:1021C0000400188804331B880D0005499847030054
:1021D0000020002C01DB0130A04029009847C046B8
:1021E00055420000AA23064A1B0113608D235B00A1
:1021F000D3600449044B19605368002BFCDA704724
:102200000040024000B0FA00006002407047C04643
:1022100010B50148FEF78EFEA48C011070B5074D75
:10222000074EB54209D20024013E761BB60808CD00
:10223000984723000134B342F9D170BDA08B01103F
:10224000DC8B0110054B064A06491A60064A074B0B
:102250001A6010000B689843FBD1704700E0004003
:10226000BFCDFBFE08C00040FE7F3C0000F00040F8
:10227000044BDB6C002B03D18022034BD2021A608B
:102280007047C046000011504C201150044A054BC5
:102290001A60054A1368DB018033FBD17047C046E2
:1022A000FFFFFF0100F0004008C000404022034B48
:1022B0009A675A671A67DA667047C04600F00140AD
:1022C00010B5FEF7DBFE10BD70B5044D044C2800C0
:1022D000C022A16801F09CFCA56070BD0000002038
:1022E00000ED00E0002310B5294C82B0A367FFF792
:1022F00079FF0122274B1A60636C012BFCD103226A
:10230000254B1A60224A936B012BFCD101330093B9
:102310000121224A22480433FFF770FE05230121E0
:102320000093204A2048FFF769FE00220221042082
:102330001E4BFFF7E9FD0022012105201C4BFFF792
:10234000E3FD0022002107201A4BFFF7DDFD0022EC
:1023500000210820174BFFF7D7FD8023DB000093F7
:10236000002200210920134BFFF754FD0022104BDF
:1023700000210620FFF7C8FD0420FFF739FE0E49B3
:1023800000F04CF801000020FFF7DEFE02B010BDA7
:10239000008000403CB0004030B00040002F685941
:1023A00000800240008C864700C00240001BB7003E
:1023B00040597307006CDC0240420F0001480421C1
:1023C000014B18473010002079210010124A936FFA
:1023D0009B0815D29066D166002905D0FFE7FFE77C
:1023E000FFE7516F106F704704B580210906C217CF
:1023F0005140002800D0C84316F092FB002104BDD4
:10240000F0B5146E556E576F166FFFF7E3FF146645
:10241000556657671667F0BD000000D0114A936FEC
:102420009B0813D210665166002905D0FFE7FFE72D
:10243000FFE7516F106F704704B5002801D00020EE
:10244000C04316F06DFB002104BDC046F0B5146E0C
:10245000556E576F166FFFF7E5FF146655665767A1
:102460001667F0BD000000D094464A4A926F920869
:10247000624601D228E0C046F0B5464E346E756E15
:10248000776F366F00F020F89446424A146655661E
:10249000576716676246F0BD94463E4A926F9208AF
:1024A000624601D254E0C046F0B53A4E346E756EC5
:1024B000776F366F00F04CF89446364A14665566CE
:1024C000576716676246F0BD002B24DB11D0002948
:1024D0003EDA00B5C943404200D1013100F038F87E
:1024E000C943404200D10131DB43524200D10133A4
:1024F00000BD002AEBD1002801D1002905D0002021
:10250000C90FC90701D1C043410800B516F0F8FA58
:102510000022002300BD00B500290ADBDB43524244
:1025200000D1013300F014F8C943404200D1013119
:1025300000BDC943404200D10131DB43524200D1CA
:10254000013300F005F8DB43524200D1013300BDF6
:10255000002923D1002B18D1002A0CD0BC460D4FE6
:1025600038667A6600210023FFE7FFE7FFE77A6F0E
:10257000386F67467047002801D00748010000B552
:1025800016F0BEFA0022002300BD02000B0000205E
:1025900000217047000000D0FFFFFFFF002B00D09C
:1025A000BFE0130C28D1002AE7D080B4114F396660
:1025B0007A66FFE7FFE730B4040C7B6F396F1B04CA
:1025C00023433B667A66FFE7FFE7FFE7C04684B236
:1025D0007B6F3D6F1B0423433B667A66FFE7FFE793
:1025E000C04600232C042D0C7A6F386F0019694106
:1025F000B0BC7047000000D0F0B594460025140E22
:1026000001D112020835140F01D112010435940FC3
:1026100001D192000235D40F01D152000135D40B03
:102620000134254F7C66254C3C660E0C93B2FFE7C7
:10263000FFE7FFE73C6F6643360C7703BE46734304
:10264000DF0B5B04C01AB941130C7343DB18C91AC2
:10265000CE086643360CB64493B273431F0F1B017A
:10266000C01AB941130C73431F0B1B05C01AB941A3
:10267000860D8F023E436643360C092D24DB520A39
:102680007243801A7703460A6643360C16235B1B97
:10269000DE40DF40BF1964466643821B7046043546
:1026A00006330100D940A840C01900D30131A2422D
:1026B00006D20023F0BD0000000000D0FFFFFFFFA6
:1026C000121B0130F3D3F1E709277F1BFE4064465C
:1026D000A2B27243801A00D20139220C7243130C49
:1026E0001204821A99410B00704604351337010019
:1026F000F940A840801900D30131002B02D1A24239
:102700000AD2F0BD013000D30131121BFAD2013BD5
:10271000F8D1A24200D2F0BD013000D30131121B2A
:10272000F7E7F0B51C0C00D080E00CB400251C0AC3
:1027300004D11B02160E3343120208351C0B04D1C0
:102740001B01160F3343120104359C0B04D19B006F
:10275000960F334392000235DC0B02D192185B4195
:1027600001351C00971864410134464F7C66464C85
:102770003C660E0CFFE7FFE7FFE7C0463C6F664391
:10278000360C7703BE4697B27743C01B00D201399F
:10279000C01B00D201399FB27743C91BC91B170C5C
:1027A00077437E04FF0B801BB941CE086643360C8D
:1027B0000C2D33DBB644120B1F053A431B0B97B2AB
:1027C0007743C01B00D201399FB27743C91B170C56
:1027D00077433E043F0C801BB941860D8F023E4378
:1027E000664329277F1BFE400C3D7746AF40BF194B
:1027F00030BCA2B2ABB272437343801A9941220C2F
:102800007243130C1204801A994102000B00013725
:10281000001BA941F9D2781E0021F0BD0C277F1BB7
:10282000FE4077467F0BAF40FF19E0E700245D1CB8
:1028300007D0144F7D663966FFE7FFE7FFE7FFE744
:102840003C6F95B29EB265436643401BB141150C87
:102850001E0C6543664336042F0C3E432D04401B7B
:10286000B141994204D202000B0020000021F0BDCA
:1028700001D19042F7D3801A994101349942F2D3A1
:10288000F6E70000000000D0FFFFFFFF44464D4682
:1028900056465F46F0B47047F0BCA046A946B24623
:1028A000BB46704748404140484018B41B4B5B68EA
:1028B000FC46019308BD04DF7F2E001018B4174BAF
:1028C0001B68FC46019308BD00DF892E001094466A
:1028D000134A926F920809D2624618B40F4BDB6814
:1028E000FC46019308BD0CDF413100100C4AF0B5E5
:1028F000146E556E576F166F6246FFF7EEFF084A6B
:102900001466556657671667F0BD18B4034B9B688D
:10291000FC46019308BD08DFE52F0010806700200A
:10292000000000D0FFB550404240504059404B405D
:10293000594000E0FFB5154F4C00640D03D0BC4278
:1029400004D10C0314D80020090D09055C00640DA6
:1029500003D0BC4204D11C030AD800221B0D1B0566
:1029600001264B4009D44B4003D58B4200D1824213
:10297000FFBD9942FCD19042FFBD0B43DB180343DE
:102980001343F5D0C9434918FFBD0000FF070000FD
:1029900000B5FFF7CFFF804100BDC04600B5FFF78F
:1029A000C9FF01D9002000BD012000BD00B5FFF71F
:1029B000B9FF01D9002000BD012000BD00B5FFF71F
:1029C000B1FF804100BD012040054A00121804D823
:1029D0005A00121801D800207047012070470000EB
:1029E0000021002805D17047C1174840401AFAD08D
:1029F000C90713B5064B1B6898470CBC441CA24082
:102A00001005120B0349091B09051943114310BD99
:102A1000D87A00201F04000010B54C00620D8023FE
:102A2000D218DB00D21A5B057E2A10DD9E3A13DA3B
:102A3000CC170903490819435242D14064000134BC
:102A40001532202A05DAD0400843604310BD00202B
:102A500010BD0846604310BDC80FC018013810BD36
:102A600018B4044B5B6AFC46019308BD24DF753340
:102A7000001000008067002018B4044B1B6EFC4659
:102A8000019308BD60DF273400100000806700203C
:102A9000024A034B00B500F0D1F900BD182D445493
:102AA000FB2119408A0002D3920D092A08DA18B4D2
:102AB000064BDB6BFC46019308BD3CDF5B35001029
:102AC00000B5FFF7E5FF04BC9646F0E780670020FD
:102AD0008A0002D3920D092A08DA18B4064B1B6C3F
:102AE000FC46019308BD40DF6B35001000B5FFF7D1
:102AF000CFFF04BC9646F0E780670020132370B533
:102B00001D78012D19D014DD1E48FFF72DFB06009E
:102B10001D48FFF729FB1D4C80223100200001F0E9
:102B200077F8022D06D01A48FFF716FB194B1860EC
:102B300070BD164C184BA364F5E7174B134C23607C
:102B40006360A360E36023616361A361E361236267
:102B50006362A362E36223636363A363E363236447
:102B60006364A364E36423656365A365E365236627
:102B70006366A366E36623676367A367E367A3648B
:102B8000D1E7C04653440000534600008067002050
:102B90004C330000D87A00204D2E0010F0B5574677
:102BA0004E464546DE46E0B587B002925A009A4648
:102BB000530D9946109B4D0004006D0D002B01D064
:102BC00000221A609A4A95427DD04B46002B7AD05B
:102BD000002D00D182E027000E00914575D0013B09
:102BE0000393AB4271DCCB0F0E039846330B9B462D
:102BF00080235B039C465B46624613431F0053469B
:102C0000060018036346000B0343029A0193039BDB
:102C10000092AB4200D1AAE04346002B00D1B7E0BE
:102C200033003C0000275E42A7414B46ED1A002DC1
:102C300000DCC0E00120019B40421911FFF7EEFBD0
:102C4000002398464B4603935346AB4602900493A9
:102C50001BE032009A4015003300524693401C009E
:102C60004B464846D917009A019B00F0FFFD4346AA
:102C7000524693404B4498465B4626002F009B1AD1
:102C8000361A8F419B46002B2BDD5B46DA460C2B18
:102C900001DD0C239A46029ABB11534351461D2273
:102CA000521A1341202201335B10524299468B186D
:102CB000CFD5202332005B1ADA4013003A008A4055
:102CC00015001D43C8E700275A4E3800310007B0F1
:102CD000F0BCBB46B246A946A046F0BD0027002680
:102CE000F3E7039B9946049B9A46009B019CBC42D8
:102CF00000DD83E000D17DE0009B019CF61AA74136
:102D0000BC4200DD8BE000D185E0009B019CF61AFF
:102D1000A74102239C46E0443200009801993B0001
:102D200092197B418B421ADC17D000998A425AD003
:102D30005346002B02DA43465B429846109B002B19
:102D400001D042461A604B463B4A30003900D21A45
:102D5000FFF792FE07000E00B7E78242E5D9009B1D
:102D6000019CF61AA74101239C46E044E0E7019B41
:102D70009F422FDD00980199434600184941002BDE
:102D80003FD1039B361A8F41994601239846CFE7DE
:102D90004B46ED1A002D00DD4CE7019BBB42BBDC2E
:102DA000009B019CBC4201D1B342B5D8009B019C61
:102DB000F61AA74133E000239846009B019CF618C1
:102DC0006741002F2FDAF618674102235B429C46C9
:102DD000E044A1E7009A019B9F4201D19642C9D8E5
:102DE00027000E0071E7019A9342A1D14346DB0709
:102DF0009ED5B4E7009BB34200D87DE7002FDCDB13
:102E00008AE7039B801BB941994601235B42060078
:102E10000F0098468CE7009BB34200D875E701236A
:102E20009C46E04478E701235B429C46E04473E71C
:102E3000FF0700000000F07F3304000010B50024FD
:102E400082B00094FFF7AAFE02B010BD07B560463D
:102E500001880A0A0230DF2AFAD1C9B2820804D3F3
:102E6000028840880004104300E00068014A505086
:102E7000039007BD806700200FB403BC0CBCF0B505
:102E80000124E407634000E0F0B50C0DCF0F661E8F
:102E90003605891B640503D3C943404200D3013181
:102EA000640D03D0661CF60A07D0E41B00207F00E7
:102EB000791C89078912803C24031D0DDF0F6E1ECB
:102EC00036059B1B6D0503D3DB43524200D3013310
:102ED0006D0D03D06E1CF60A07D0ED1B00227F009B
:102EE0007B1C9B079B12803D2D032F1B661B58D418
:102EF000A446202E46DA20371400BC401D00BD40F9
:102F0000F24033412A4380185941CB0F05D0C943C1
:102F1000C043002264425041514162464D0D28D1C8
:102F20000D0D07D100281FD0241940414941013A15
:102F30000D0DF9D0640006D3013000D30131002C0F
:102F400001D140084000013A0BD4941CE40A04D19A
:102F500012051144DB071944F0BDD907204B194372
:102F600000E0D9070020F0BD0029DDD1002CDBD125
:102F7000F0BD0132C6074008CD0728434908002E9E
:102F8000E1D0D9E73C2E29DA203E40371400BC407E
:102F900000D00124F24014431A00BB401C43D31755
:102FA000ACE7AC46202F08DA20360400B4400D0010
:102FB000B540F84039412843A5E73C2F0CDA203FC3
:102FC00040360400B44000D00124F8400443080017
:102FD000B1400C43C117EAE710001900002494E740
:102FE0000000F07FF0B50C0D661E3605891BE60A61
:102FF0006405640D02D0651CED0A04D00020012197
:103000000905803C2403A4461C0D671E3F05DB1BFD
:10301000E70A6405640D02D0651CED0A04D00022A5
:1030200001231B05803C24037740644497B484B299
:1030300096B27443070C7E43150C6F4380B268430D
:10304000361802D3012000043F183004350C001953
:103050007D41844688B29AB250430C0C62431F0CE7
:103060007C438EB27E43921902D301263604A41902
:103070001604170C3618674101BC81B29AB251434D
:10308000040C62431B0C5C4380B25843121802D3F9
:103090000120000424181004130C401863412D185B
:1030A0005E410020474106BC88B293B258430C0CE5
:1030B0006343120C544389B251435B1802D301217C
:1030C0000904641819041A0C091862416D18564154
:1030D0000020474118BCF902720D1143F0026A0D3D
:1030E0001043ED020A0D03D16D1940414941013BE6
:1030F000124E9B1B7600B3420ED26D0007D30130F7
:10310000002671416646354301D1400840001B0549
:10311000C918E4072144F0BD0BDA013306D10130B0
:1031200004D101314F0D01D04908F2E7E107002039
:10313000F0BD013631050020EBE70000FF03000081
:10314000F0B51C0D671E3F05DB1BE70A6405640D27
:1031500002D0661CF60A04D0002201231B05803C25
:103160002403D0252D060026F6432E661E096E6622
:10317000CE0FF619B44649004F0D02D07E1CF60A58
:1031800003D000200021403F3F033E1BB600B44463
:10319000013F7F05C91B49082E6F013676089C0246
:1031A000950D25437543ED137543AD1301356D1032
:1031B000F603761B0CB4CC02450D2C43A2B2B3B27D
:1031C0005A43270C7B43350C6F43A4B26C431B1945
:1031D00002D3012424043F191C041D0CA4187D41B2
:1031E00024196D41009A91B2ACB26143170C7C4333
:1031F0002B0C5F4392B25A43A41802D3012212044B
:10320000BF182204230C52187B41019C6C431B19EC
:10321000520ED9010A434401A01A81B2B2B25143FD
:1032200003145A43360C734387B27743D617D21927
:1032300000277E4136049B191704160C7F185E4147
:103240007316ED18F301002680337541A90F06D1DE
:103250006400690AE8055B0A184309D22FE00422DA
:10326000944480337541A90AA8059B0A184326D3C4
:10327000404149412404009A019B0D005543641BC1
:103280004343E41A95B286B27543170C7E43030C90
:103290005F4392B25A43B61802D301221204BF18F8
:1032A0003204330C52197B4152429C41002C02D40F
:1032B0000022013051414008CA071043490802B0BA
:1032C0006246D7079210084BD218084B9A4203D295
:1032D00012058918C919F0BD0020002A01DC390047
:1032E000F0BD01331905F5E7FD030000FE070000FE
:1032F000624618CA94465A46002A20DB04E0624619
:1033000018CA944600291ADAC01861415B463B414D
:103310005C46B4405246FA40224344464D46624120
:103320006B41904699462B46B3403D41FC401C43BF
:1033300052465B46A241AB4192469B467047C01A3B
:10334000A1414B463B414C46B4404246FA402243E1
:1033500054465D4662416B4192469B462B46B340C4
:103360003D41FC401C4342464B46A241AB41904686
:1033700099467047002200B5203200F010F808008E
:1033800000BD002200B500F00CF8CA179A4200D127
:1033900000BDD8430121C907414000BD00220B15E3
:1033A0000AD410B5944600F079F81414013400DA08
:1033B0000021CB17144C20470020002170476244A5
:1033C000343A0CD40C2A07DA04009140904052425F
:1033D0002032D440214310BDD843D94310BD203200
:1033E00007D40C469440524220321141D040204331
:1033F00010BD0800C917203203D4524220321041B8
:1034000010BD1800190010BDBF33001000210A00C4
:10341000002104E000210A00C11704E0002200237B
:1034200006E0C0460022CB1758405940C01A9941C7
:1034300030B5184CA21A002903D1010010D0002089
:10344000203A4C1512D104D2013A001849414C0DD2
:10345000FAD3114CA24204D212058918DB07C9180D
:1034600030BDD243520D00200021F5E703D4013ACC
:1034700000184941FBD50B324405C00A4D052843CD
:10348000C90A640003D0002460416141E1E7E0D350
:103490004408F8E732040000FE0700000A0DCC0FD4
:1034A000531E1B05C91A520503D3C943404200D31A
:1034B0000131520D03D0531CDB0A07D0121B002030
:1034C0006400611C89078912803A1203014BD21AE9
:1034D00070470000FF030000023225D40C2A1CDADA
:1034E0001125AD1A0B002B41083207350600EE40BE
:1034F000904091403143F0CC63431A1500235A4168
:10350000554356435743BF02F41276057619674177
:10351000ED177F19801BB94170470C220020C91795
:10352000490001310905DBE70902030E19430002D6
:103530005342203208D40C0019419440D840204313
:1035400000225041514170470800C917203B2032EA
:10355000F1D50020002100227047F0B5FFF796F961
:1035600000F00EF800F030F806E0F0B5FFF78EF945
:1035700000F006F800F046F8FFF78EF9F0BD000005
:1035800000B5FFF78BFF30A4FFF7A6FF00242C4DFA
:103590002C4ED20702D3F6436D426641520004D24C
:1035A000A246A346A846B14603E0A046A146AA46C5
:1035B000B3466EA4A44601271F26FFF7A0FE0137DD
:1035C000013E212FF9D100BD594684B28DB26C4322
:1035D000061475430B145E4382B25A43AD18EA17C2
:1035E00000D7D2431204B6182A042B0C12197341C7
:1035F000404649469D009B17920F2A4390419941AE
:103600003E2210E7494684B28DB26C4306147543DE
:103610000B145E4382B25A43AD18EA1700D7D24367
:103620001204B6182A042B0C12197341504659463D
:103630009D009B17920F2A43504159413E22F2E6CA
:10364000BB4DF09DC556F6367D5100001A61140041
:1036500085880A00FB211900F0B5FFF717F9404DE6
:103660000C002C4001D0AC4202D1090D090500200C
:103670001C002C4001D0AC4202D11B0D1B050022C6
:103680000026ED02002B04D502266B40694000D4D1
:1036900076424F1904D599420CDD0136694003E0AA
:1036A000BB4207DA013E6B40070010003A000F00F2
:1036B00019003B0040B4002A0FD1002B0AD05C0057
:1036C0006415013409D14C006415013402D101396B
:1036D000013B02E0002000212EE0FFF731FD3E22F9
:1036E000FFF750FE82468B460020002180460122D3
:1036F000920791461DA4A44601271F26FFF7F8FD57
:103700000137013E212FF9D14A4653460C3A012494
:103710006407002752081B0005D493410019794122
:103720006408F7D104E05341001BB9416408F1D1AA
:10373000CE0749104008304340BC002E0AD0094C47
:10374000094D01D5E443ED43F60701D10019694164
:10375000001969413D22FFF766FEFFF79DF8F0BDB5
:103760000000F07F8D305A88A8F64332694FBB6164
:103770000567AC1DB16E4096FCBAAD0F72DB0BABAA
:10378000A66EF50739BD9FE576ABFE034B6297BA8F
:103790005BD5FF01D694DBDDAAFAFF005DEAEE56A9
:1037A00055FF7F006E77B7AAEAFF3F00BCBB5555B7
:1037B000FDFF1F00DEADAAAAFFFF0F006F5555F5F4
:1037C000FFFF0700ABAAAAFEFFFF03005555D5FF78
:1037D000FFFF0100ABAAFAFFFFFF00005555FFFFF6
:1037E000FF7F0000ABEAFFFFFF3F000055FDFFFF3A
:1037F000FF1F0000ABFFFFFFFF0F0000F5FFFFFF03
:10380000FF070000FFFFFFFFFF03000000000000B4
:1038100000020000000000000001000000000000A5
:1038200080000000000000004000000000000000D8
:103830002000000000000000100000000000000058
:10384000080000000000000004000000000000006C
:1038500002000000000000000100000000000080E5
:1038600000000000000000400000000051434343FE
:10387000C9188C46110C83B24B4310B4040C61433D
:1038800092B280B2504362431C041B0C001910BC5E
:1038900059411304120CC018514161447047000093
:1038A0004840414048400E4B5B6818470C4B1B6832
:1038B00018470C4A936F9B0802D2094BDB681847E4
:1038C000F0B5146E556E576F166FFFF7F6FF054A89
:1038D0001466556657671667F0BD014B9B6818471D
:1038E00080680020000000D0491A002808D108464E
:1038F00070470000C10FC90700D54042002817D00B
:10390000F44603B40B4B1B68984706BC81409E38B5
:103910004042803107D20B0607D04900490AC00552
:103920001043084360470130F8E7490A8902F5E788
:1039300070470000D87A002041000A0E80231B0641
:103940007E2A0BDD9E3A0BDAC1174002400818436D
:103950005242D0404900013148437047002070472F
:10396000C00FC01801387047C0420DD300B54000E9
:103970004008002100F012F8002801D4404200BDA8
:103980008020000600BD0000034BDB69FC461847A1
:103990001CDF353B0010000080680020014B5B6A93
:1039A0001847000080680020034BDB6FFC46184777
:1039B0007CDF4D3B0010000080680020C11502D460
:1039C000054B9B691847C843FF2801D1C0077047C2
:1039D000C817C0057047000080680020034B9B6D2E
:1039E000FC46184758DFAD3A001000008068002000
:1039F000132310B512481C78FEF7B6FB0100012C0A
:103A00000AD003DD80220F4800F002F90E48FEF7CD
:103A1000A3FB0E4B186010BD0A4C5422200000F08E
:103A2000F7F80B4B6365A365E36523666366A366DE
:103A3000E36623676367A367E3672362E361E5E700
:103A400053460000806800204C330000D87A0020E4
:103A5000813A001010B5C30DFF2B09D0054A9342DF
:103A600004D0FE218905FFF7B9FF10BD0248FCE72D
:103A70000248FAE7FF010000DB0FC9BFDB0FC93FB7
:103A800007B5604601880A0A0230DF2AFAD1C9B2B6
:103A9000820804D3028840880004104300E00068D4
:103AA000014A5050039007BD8068002030B51D4C7E
:103AB000A446E04704460846214614461A462346D3
:103AC000E04740014901D418641201340AD4D41AE1
:103AD00005DA644220411C2C0DD3C0170BE02141B4
:103AE0001C2C08D3002804DA0F4B1868C91748406B
:103AF00014E0C81712E000220B4B002802DA404203
:103B000049421A680124094DA8471046064B1A6815
:103B1000841802D2841A00D4A01A01380022044B5F
:103B200018470000C1290000FC2C0000972B000062
:103B3000192B00000021C2158032803201D0024AC8
:103B40001047002070470000CD2A0000C30FDB079C
:103B500041000A0E07D0FF2A08D00909054A891832
:103B60001943400770471900002070470249C918DF
:103B7000FAE70000000000380000F07F10B50400F4
:103B800012F00EFF002804D0034B04199C4200D809
:103B900010BD0248FDF7CEF900000420B08C0110E2
:103BA00070B505000C0012F0D5FD6C43002804D060
:103BB000034B04199C4200D870BD0248FDF7BAF9C6
:103BC00000000420B08C011010B50C0013F058FA5E
:103BD000002804D0034B04199C4200D810BD0248B1
:103BE000FDF7A8F900000420B08C011010B512F008
:103BF000E1FE10BD01480421014B18474010002090
:103C000079210010014B1B6818470000401000206C
:103C1000014B5B681847000040100020EFF3108C48
:103C200072B6074B1A68002AFCD0BFF35F8F416859
:103C30000068BFF35F8F00221A608CF31088704712
:103C4000340100D030B514001D00EFF3108172B6BE
:103C5000074B1A68002AFCD0BFF35F8F04604560F1
:103C6000BFF35F8F00221A6081F3108830BDC04619
:103C7000340100D030B5010014001D00EFF3108CAA
:103C800072B609480368002BFCD0BFF35F8F0A6847
:103C90004B680C604D60BFF35F8F002101608CF3B7
:103CA00010881000190030BD340100D09A4200D2B3
:103CB000885470477047C046F8B557464E4645464B
:103CC000DE46E0B599460A9B07009A460D9B88465A
:103CD000934615000B9E9B0710D10C9B9E420DD264
:103CE0009D1B14000E005D4422004B460134310040
:103CF0002020B847A542F7D1B0460B9E002E27D012
:103D0000444675195346AA1B013E985D21004B4657
:103D1000B847002EF6D123002C0098460D9B9B0738
:103D20000FD55B46E51A0C9BAB420AD9464698462E
:103D300022004B46310020200135B8470134A84508
:103D4000F6D82000F0BCBB46B246A946A046F8BD56
:103D50002C00E3E7F0B54F464646D646C0B584B0E2
:103D600098460EAB1B78129F994694460D9C109B6B
:103D7000119EBA0725D4002E4BD19C4200D3BFE040
:103D800001223A4092461F2C00D9B8E00C9A551EE9
:103D9000302201E0202C03D001342A55A342F9D867
:103DA0005246002A0DD0A6420BD9202C44D00C9AA2
:103DB000551E302201E0202C3ED001342A55B44259
:103DC000F9D1FA064DD57A053FD4002C39D10F9B95
:103DD000102B00D179E00F9B022B00D18AE0302319
:103DE0000C9A012413704B46002B3FD02D230C9AC4
:103DF000135501340C9B6246009303974346029689
:103E00000194FFF759FF04B0E0BCBA46B146A8469A
:103E1000F0BD012215003D40AA463A422FD04A4645
:103E2000002A02D10C323A4200D0013E9C42BAD262
:103E30001F2CABD9202E27D92024FA06DAD57A05F3
:103E400003D4A3422DD0A6422BD00F9B102B32D0EF
:103E5000022B20D0202CCDD030220C9B1B191A70A5
:103E60000134202CC6D04B46002BBFD17B070DD48C
:103E70003B07BFD520230C9A13550134BAE79C4267
:103E80009FD21F2C00D881E720249AE72B230C9A7D
:103E900013550134AEE7202CACD00C9B1B19013418
:103EA0003AE0631E012C92D00F9A102A2AD0022ADF
:103EB0002FD01C00D0E7BB060ED4202C9AD00C9B30
:103EC0001A19013478231370C4E7BB060DD4782384
:103ED0000C9A01241370BFE7202C00D18AE75822E6
:103EE0000C9B1B191A700134B4E758230C9A012457
:103EF0001370B1E70C9A603301241370ACE72024EF
:103F000000265EE7023CBA06E9D40C9A12191C009E
:103F1000D8E70C9A9246534462221A709AE7C04638
:103F200010B5002800D110BD01F056FBFBE7C046DC
:103F3000F0B5DE4657464E464546E0B59BB09B463B
:103F4000249B89469846259B0B900C9240464246FE
:103F500019009A46FEF737FD002800D0D8E001226C
:103F600040465146774B5242FEF728FD002800D0CC
:103F7000CEE0012240465146734B5242FEF708FD07
:103F8000002800D0C4E00022002340465146FEF73E
:103F9000FFFC002800D0B9E1424653460A9209933B
:103FA0008023289ADB001A400E92289A1A4201D1E7
:103FB000062326930A9A099B1600134300D0C7E0F4
:103FC000289B002500261B0500D49BE100230D93B0
:103FD000269A0D9B9A4200DC9FE1D01A431E26933D
:103FE0008023289ADB001A430023002728920D9390
:103FF000279B0024BB4200D9DC1B0223289A1A40CD
:104000000E92289A134203D07B427B415B421C40B4
:104010000D9B002B07D00A9809992A003300FEF760
:1040200056FC0A9009910022002340465146FEF7B3
:10403000AFFC002805D08020000684460999614421
:104040000991289A414B0B9D13400493269B0A9A91
:104050000293099B03940092019349465B46280012
:104060000C9A00F08BF90400002F62D0289B2200EC
:1040700098061F23C0179843631C984649465B4621
:104080006530A8470D9B0025DA179C18DB0F9A4670
:104090005440013F01E0202D13D00AAA94461F236B
:1040A000200063440A2101355E19FEF7B7F930316B
:1040B000317020000A21FEF7B1F926000400092E14
:1040C000E9D805230693002304930A330393534648
:1040D00005970B9F029312AB009342465B464946FD
:1040E00038000195FFF736FE0E9B0400002B20D010
:1040F0000C9BC51A279BAB421BD91E0022005B46B6
:10410000494620200135B8470134AE42F6D810E0C8
:10411000289B42460493279B49460393269B0B9872
:1041200002935346009201935B460C9A00F026F9E5
:10413000040020001BB0F0BCBB46B246A946A04616
:10414000F0BDC046FFFFEF7FFFFFEFFFFFF7FFFF70
:10415000734B099F9C467800400D6044FEF744FC79
:10416000704A714BFEF7D1FB704A714BFEF7A6FB0C
:104170003B03704A1B0B1A4304000D003000110072
:104180006D4B0022FEF791FB6C4A6D4BFEF7BDFBB9
:1041900002000B0020002900FEF790FBFEF73CFC1C
:1041A0000D90FEF721FC674A674B04000D00FEF7F7
:1041B000ACFB0022654BFEF781FBFEF72DFC644A49
:1041C0000600644B20002900FEF79FFB040030002E
:1041D0000D000F96FEF708FC5F4A604BFEF795FB5B
:1041E00002000B0020002900FEF75FFB02000B001D
:1041F00006000F00FEF789FB320004000D003B00B3
:1042000030003900FEF75AFB002210901191544BF8
:1042100020002900FEF75BFB0022524BFEF74EFB0D
:1042200002000B0020002900FEF751FB00224E4B3C
:10423000FEF744FB02000B0020002900FEF747FBBD
:104240000D008021040032003B000020C905FEF76C
:104250002CFB02000B0020002900FEF72FFB0200C0
:104260000B0010981199FEF732FB0022314BFEF73C
:1042700025FB3E4B0F9C9C46644400222305FEF721
:1042800044FB05000E0002000B000A980999FEF796
:104290007FFB00280AD00D9B2800013B31000D93C5
:1042A0000022304BFEF713FB05000E00C6270D99C8
:1042B0002B0063318F42BF4128997F4204370905A3
:1042C00000D495E6334300D182E6099C284A2100B8
:1042D000284B0A98FEF76AFB002808D0002221002C
:1042E000254B0A98FEF754FB002800D070E6269B69
:1042F000002B00D17CE60E9B5A1E9341269AD31ABE
:10430000269375E6002304270D9371E643460A932E
:1043100080231B065344099342E6002326935FE65D
:1043200001FCFFFFFB799F501344D33FB3C8608B60
:10433000288AC63F0000F03F0000F83F61436F63EA
:10434000A787D23F71A379094F930A400000E03F4D
:104350001655B5BBB16B0240EF39FAFE422EE63F6F
:1043600000002C400000244000001840FF03000023
:104370002D431CEBE2361A3F80842E41F0B54E46A9
:10438000DE4657464546E0B597B09946209E219FA8
:10439000229B8346984607910C923B0032003000E6
:1043A0003900FEF710FB002800D0A9E101223000FF
:1043B0003900CA4B5242FEF7EBFA002800D0E1E088
:1043C000012230003900C64B5242FEF7F7FA0028AE
:1043D00000D0B7E0002230003900C24BFEF7EEFA01
:1043E000002800D099E0002230003900BE4BFEF7D3
:1043F000CFFA002800D090E00022002330003900DE
:10440000FEF7C6FA002800D0B1E000230D93249BEC
:104410005B0501D40623984608AB9C46172200246E
:1044200030234146624404E0013413550139202C05
:1044300001D00929F8D8884630003900FEF7ECFA97
:104440004346DA00A94B05009B181A685B6808927E
:104450000993FEF7C9FA02000B0030003900FEF79D
:1044600024FA089A099BFEF750FA0A900B91FEF77E
:10447000F7FA8246FEF7B4FA02000B000A980B998D
:10448000FEF713FA00229A4B0A900B91FEF796FA68
:10449000002800D1C0E001239C46E2445046FEF7CC
:1044A0009FFA02000B0008980999FEF777FA002896
:1044B00002D000239A4601354346002B6AD008AB50
:1044C00017269C4608956644554614E001235B4236
:1044D00043440A2128009A46FDF7A0FF01343031F9
:1044E0003719397028000A21FDF798FF092D00D8E7
:1044F000D0E0D0460500202CE8D10EAB984603232F
:10450000249A1340012B00D196E02023249A019392
:104510000392239A434602921EE0249B584604933A
:10452000239B00960197039343460C9A02930799A5
:104530004B46FFF7FDFC17B0F0BCBB46B246A946A0
:10454000A046F0BD249B5B070ED40322694B24993F
:104550000192039123990291009358464B460C9A7D
:104560000799FFF7A9FBE6E70422634BEFE73B005F
:10457000320000200021FEF798F9012306000F0009
:104580000D9344E7249B0393239B029304230193FD
:104590005A4BE1E72800FEF727FA02000B00300033
:1045A0003900FEF782F9524B002206000F00FEF799
:1045B000EFF90EAB984600280AD1002230003900EE
:1045C0004B4BFEF7FBF9002802D1EB0700D5013574
:1045D000202C94D008AA94461723280063440A216B
:1045E00001341E19FDF7F2FE3031280031700A2126
:1045F000FDF7ECFE051EEBD10323249A1340012B9B
:104600001BD0202C00D180E70D9B002B35D02D2214
:104610004146631C0A5579E700220A980B99344BEE
:10462000FEF7B6F9002800D046E75346002B51D1DB
:1046300001239C46E2443FE72024239B002BE0D04B
:104640000D9B002B03D1249A0C33134202D0239BE1
:10465000013B2393239BA342D3D908AB9C4617224B
:1046600030236244202C00D14FE7239901341355A5
:104670008C42C6D0202CF8D147E7249B5B0724D47A
:10468000249A2300120700D440E720224146013338
:104690000A553BE75746089D202C00D12DE7220004
:1046A00030214046002F09D00132B154202A00D1D8
:1046B00023E7D3431B191B18002BF5D10EAB9846EB
:1046C0002E234146541C8B5482E72B224146631C07
:1046D0000A551BE7DB0700D4EEE6A9E7FFFFEFFF73
:1046E000FFFFEF7F65CDCD4165CDCDC1508F01106E
:1046F0000000E03F548D0110588D0110648D0110B1
:10470000249B0393239B029303230193004B23E7F2
:10471000608D0110F0B5DE464E4657464546E0B581
:104720009FB01C00289B91460993C94AC94B8B46F0
:1047300008901A60002900D118E2002320789A46D8
:10474000002800D11AE226001D005C460AE02A007B
:104750006F1C4B46089D2100A8473D00013630786C
:10476000002870D02528F2D110239B46083B9A469A
:10477000043B9846023B00219C46721C10781600B0
:104780000300203BDBB2102B03D8B34F9B00FB5838
:104790009F460300303B092B32D900230A932A2875
:1047A00068D0002398462E283ED00300683BDBB239
:1047B000122B1CD8A94A9B00D3589F4601230132D3
:1047C0001943DBE7634601321943D7E74346013219
:1047D0001943D3E75B4601321943CFE75346013211
:1047E0001943CBE780235B0070781943013603003F
:1047F000253BDBB2532BAAD8994A9B00D3589F463E
:1048000000270300B800C01901364000C0183378F3
:1048100030381A00303A0700092AF3D90A901800F4
:10482000002398462E28C0D180237078DB001943DE
:104830000300303B721C092B00D8A1E12A2800D1CB
:10484000B2E11600B1E7A346AA462C00D14503D831
:1048500001235B424B449A464B4652465946002040
:10486000089DA84720001FB0F0BCBB46B246A94631
:10487000A046F0BD099B40CB0A96002E03DB507882
:104880000993561C8DE72838014370420A9009931A
:104890005078561C85E7782800D1DFE1582800D1F0
:1048A0004CE26F2800D14FE3622801D100F030FCC8
:1048B00010230A009A430B92692801D000F0A9FC4A
:1048C0000A230C934B0500D5D0E10B9A80231100ED
:1048D0009B0019408B461A4200D0A1E280231100B0
:1048E0005B0019408A461A4200D0B6E313005B060B
:1048F00000D5EDE2130009991B0601D400F076FC07
:1049000008C91BB2D8171A18424092B209919346AF
:10491000DA0F1292002B09D1802310220B99DB00B1
:104920000B4091430B91002B00D0E4E20B9A6123E2
:10493000920600D541230EA91F228C46DBB26244A9
:104940000A3B5F461395A34655460C9CB2460D9311
:1049500016000AE03033DBB201357355A74200D2AE
:10496000EDE2202D00D1EAE2070021003800FDF73A
:1049700055FDCBB20929EDD90D9A94466344DBB2BB
:10498000EAE780239B007078194301362FE770789F
:10499000682800D1CDE180230136194327E77078DC
:1049A0006C2800D1BFE180235B00194301361EE76C
:1049B000462800D19BE10722099B049107339343CA
:1049C0000A9A19000392424602920CC90898009272
:1049D000019309912A004B462100FFF7CFFC0136D5
:1049E0000500BCE62A006F1C4B46089D21002520CF
:1049F000A84701363D00B2E68B0700D4ADE1099B24
:104A00002A009A466B1C9846534601CB21009A46D1
:104A1000089F4B46C0B2B8470A9B9C466544012B91
:104A200000D886E2089B4746B04626004C46994689
:104A30003A002300013731002020C847AF42F7D1A8
:104A4000A1465346340046460993013687E6C046E0
:104A500015470010487A00206C8D0110B08D0110B0
:104A6000FC8D0110099B04CB9B4643460992002B09
:104A700000D1C6E013789C46002B00D1BDE343462D
:104A8000013B099A0133D0180A9F130001E08342C9
:104A900003D05A780133002AF9D1099A0A979B1A50
:104AA0000B9380230A00DB001A400C92194204D0B9
:104AB0000B9B434501D943460B9302231A000A403E
:104AC0000D920B4200D187E16046002800D168E1D9
:104AD0000C9B002B00D10DE1A844C246099B574610
:104AE0005B1B9846089BB2462A0026004C46994616
:104AF00009E023003100551CC8474346585D002893
:104B000000D126E12A009742F3D1A1463D003400AE
:104B100056460D9B002B00D043E15B4601360993BE
:104B20001DE6099B1A0008CA9246002B48D0212294
:104B300011438B460EA884461F216144099500222B
:104B40000F27A4460D0002E0202A0CD00B003C00E9
:104B50001C4020003730092C00D807380132A854F7
:104B600019090F2BF0D86446099D32E0DC4B207800
:104B7000089300239A46002800D0E4E5002465E667
:104B8000434606000A9F9800C01801324000801971
:104B90001678030030003038303B0928F3D9300054
:104BA000984616000A9700E6099B023604CB904609
:104BB000D2434046D2171040804609933078F4E53E
:104BC0001022080090431132104383460022490509
:104BD000B0D55B4606930823059343460493102300
:104BE00003930023029316AB019200932A004B46D5
:104BF00021000898FFF7AEF85346050001360993E7
:104C0000ADE513789C46002B00D1F7E202235B420E
:104C100037E7202302009A43472A04D180231B014F
:104C2000194302239843452801D120231943072221
:104C3000099B0491073393430A9A19000392424651
:104C400002920CC908980092019309912A004B46E0
:104C50002100FFF76DF90136050080E510230C9364
:104C60000C230A009A430B924B0503D501230B9AA0
:104C70009A430B92692800D127E6642800D124E6E4
:104C80000B9A802311009B0019408B461A4200D0DA
:104C900066E1802311005B0019408A461A4200D069
:104CA00039E213005B0600D53CE113001B0600D47B
:104CB000A6E2099B04CB1204120C934609935B46AF
:104CC000002B00D09AE10B9A1033110099430B91FD
:104CD000520500D492E100239A460B9B06930A9B4F
:104CE0000593434604930C9B039300230CE120237C
:104CF000194360E6099B0A9A5B1B98464B4691460E
:104D00001F00B2462600089C2A003B003100A04745
:104D100043460135585D0028F6D14A463400B9466D
:104D200056460A92F5E6C0239B00B0781943023636
:104D30005DE5C023B0781943023658E50C230A001C
:104D40009A4314331A43103B0B920C934B058DD4AA
:104D500096E7A14634005646DBE60A9A012A00D8B7
:104D600053E26B1E9F18089BB04626004C4699469E
:104D70002A002300013531002020C847BD42F7D169
:104D8000A14634004646099B3A0001CB21009846D3
:104D90007D1C4B46089FC0B2B84743460136099375
:104DA000DDE40B9B0A9AA8469A4200D8B5E69446E1
:104DB0006544ED1A089B4746B04626004C46994686
:104DC0003A002300013731002020C847AF42F7D115
:104DD000A14634004646A0E60B9A0A99531C91421C
:104DE00000D814E24B199B1A1F00089BB2462600FC
:104DF0004C4699462A002300013531002020C8473F
:104E0000BD42F7D10A9BA14601330B93099B3400A5
:104E10001B7856469C466046002800D058E67CE643
:104E20000722099B07339343013294469C44624610
:104E30005F6809921A68FB171093119310981199E3
:104E4000030053400E930B007B400F9394460E9A41
:104E50000F9B121A8B410E920F93FB0F6246129317
:104E600000233A439B463DD00B9A6123920600D51E
:104E700041230022DBB20EA90A3B8C4692460D93D9
:104E800043461F3262441395159655460E9E0F9F5A
:104E9000A24690460C9C14930CE03032D2B24346AA
:104EA00001355A55BB4500D18AE1202D00D18AE158
:104EB00006000F002200002330003900FDF7ECFA55
:104EC000D2B2092AE9D90D9B9C466244D2B2E6E7E8
:104ED000FF23099904C913401A00099117E5C04638
:104EE000B53C00100B9A1033110099430B915205F9
:104EF000BAD500239A460B9B06930A9B059343461B
:104F000004930C9B0393129B02935346019316AB9D
:104F10002A00009321004B460898FEF71BFF01363C
:104F200005001CE4FF22099B02CB11408B4609932C
:104F3000C5E65346454609930136FFF710FC564631
:104F40005C46AA46139DD6E708230C930B910B9958
:104F5000642800D084E60B9B5B0500D586E6B4E4AC
:104F60000722099B07339343013294469C446246CF
:104F700009921A685B6810009B4613005A46134357
:104F800007D10B9A1033110099430B91520500D5AC
:104F9000A1E60B9A6123920600D541230022DBB2E1
:104FA0000EA90A3B8C4692460D9343461F3262443B
:104FB0005F461295A34655460400B24690460C9EA5
:104FC00013930DE03032D2B2434601355A550023D7
:104FD000BB4200D100E1202D00D100E104000F0010
:104FE0003200002320003900FDF756FAD2B2092A18
:104FF000E8D90D9B9C466244D2B2E5E70B9A612347
:10500000920600D54123DBB20EA90A3B1F228C4633
:105010000D93230062445C461295170055469B464B
:10502000B2460C9E08E03033DBB201357B55B4420A
:105030000ED3202D0CD0040031002000FDF7EEF936
:10504000CBB20929EFD90D9A94466344DBB2ECE761
:1050500056465C46AA46129D3FE6099B1A0008CABE
:10506000D91713925A184A409246DA0F1292002B1F
:1050700008D1802310220B99DB000B4091430B9148
:10508000002B2BD10B9A6123920600D541230EAA47
:105090001F279446DBB20A3B0D9567445D46099392
:1050A000A3465446B2460C9E08E03033DBB20135CD
:1050B0007B55B4420ED3202D0CD0040031002000CB
:1050C000FDF7ACF9CBB20929EFD9099A94466344AC
:1050D000DBB2ECE756465C46AB460D9D0B9B2A00C7
:1050E00006930A9B21000593434604930C9B089862
:1050F0000393129B013602935B46019316AB009318
:105100004B46FEF727FE139B05000993FFF727FB8D
:1051100002230C931AE7099B04CB92461293002AB0
:1051200008D1802310220B99DB000B4091430B9197
:10513000002B2BD10B9A6123920600D541230EAA96
:105140001F279446DBB20A3B0D9567445D460993E1
:10515000A3465446B2460C9E08E03033DBB201351C
:105160007B55B4420ED3202D0CD00400310020001A
:10517000FDF754F9CBB20929EFD9099A9446634453
:10518000DBB2ECE756465C46AB460D9D0B9B2A0016
:1051900006930A9B21000593434604930C9B0898B1
:1051A0000393002302935B46019316AB00934B4697
:1051B000FEF7D0FD129B050009930136FFF7CFFAE9
:1051C000B44200D871E6149B54460E960F97AA4637
:1051D0009846159E139D8EE6A64200D8FBE6139BCB
:1051E00056469846AA465C46129D76E508C9D817E9
:1051F0001A1842400991FFF78AFB00230B9350E4F1
:10520000099B04CB9346099359E52F00BBE50B930B
:1052100001E6063B0C939AE60CB410B584B006ACDC
:1052200008CC0A000094010004480394FFF772FAC6
:1052300004B010BC08BC02B01847C046AD3C00101A
:1052400000B583B0009313000A0001000248FFF785
:1052500061FA03B000BDC046AD3C001010B5094A6C
:105260000300146884B0002C08D001220091064885
:10527000524203A9A047012004B010BD00F0F8F984
:105280000020F9E7487A0020213F001000BEFDE72A
:10529000094A03001068002805D00849C3188B424A
:1052A00007D81360704706480449C31810608B4242
:1052B000F7D901204042F5E72C76002000000420B9
:1052C000EC7B0020030010B508001100002B05D175
:1052D000044B1A685B6800F0D5F810BD012040420D
:1052E000FBE7C046788C01100300013B10B50800B5
:1052F0001400012B06D801230022210000F042F8FF
:10530000200010BD01204042FBE7C0460120404282
:105310007047C046012040427047C04601204042CD
:105320007047C0460300022200209A424041704765
:1053300010B5FFF7ABFFC04670B5FCF76FFF074D28
:10534000074EB54209D20024013E761BB60808CDAF
:10535000984723000134B342F9D170BDDC8B0110B2
:10536000F08B0110030010B5080011001B6898476E
:1053700010BDC046030010B5080011001B68984717
:1053800010BDC046F0B5DE4657464E464546E0B530
:1053900085B017001C0006000D00FCF7F7FC002389
:1053A000314A12184B41002B59DB304908008A461C
:1053B00013F0CEFB01906B1C03D1300012F0D4F837
:1053C0000500002C26D12A4B98462A4B1C68002C3D
:1053D00015D0002F21D1284F02E02469002C0ED0D7
:1053E0002368002BF9D03B68002B01D0A342F4D1F5
:1053F00020002A003100C0472469002CF0D1019B15
:10540000002B28D1280005B0F0BCBB46B246A94607
:10541000A046F0BD194B9846D7E7174B994602AB0B
:10542000DF1D0A239B4602E02469002CE7D0236895
:10543000002BF9D04B461B68002B01D0A342F3D1BF
:105440002A0031002000C0475B46012239002000BD
:105450003B70C047E8E7504613F04AFBD2E7012211
:10546000074B5242A1E7C04640420F00C41E002035
:1054700065530010587500206075002075530010AA
:10548000FFFFFF7FF8B557464E464546DE46984635
:105490001A4BE0B59A461A4B07000E009346994600
:1054A000184D53461C68002C03D115E02469002CCC
:1054B00012D02B68002B01D0A342F7D1A368002B98
:1054C000F4D03100380098470028EFDDF0BCBB462F
:1054D000B246A946A046F8BD4B465B6A984508D837
:1054E0004A46926A5A4501D2984502D0022040426B
:1054F000ECE701200021FCF753FCD2E758750020AF
:1055000000400540607500200A4A1368002B05D151
:105510000CE01A001B691032002B07D09842F8D11A
:10552000002902D103691360016170470029FCD092
:105530001060FAE75875002010B500F0D7FA10BDDA
:10554000F0B5CE464746040080B583B0FCF71EFC9C
:105550002600002736184F41002F30DBB9461A4B82
:105560001A4D984643461C68002C03D116E0246966
:10557000002C13D02B68002B01D0A342F7D1A368D5
:10558000002BF4D0012101A898470028EFDD6B46DD
:10559000187903B0C0BCB946B046F0BD0C4B5A6A8E
:1055A0004A4507D39B6AB34201D24A4502D0022042
:1055B0004042EEE701200021FCF7F2FBD2E7012692
:1055C000044B76429946CAE7587500206075002062
:1055D00000400540FFFFFF7FF0B5CE46474680B54F
:1055E00083B06B460600DD1D2870FCF7CFFB00235F
:1055F0001A4A12184B41002B2BDB19490800884628
:1056000013F0A6FA174B81461C68002C14D0164FD5
:1056100002E02469002C0FD02368002BF9D03B68EE
:10562000002B01D0A342F4D1200001222900FFF772
:10563000A1FE2469002CEFD14B46002B05D1300090
:1056400003B0C0BCB946B046F0BD404613F050FAB6
:10565000F5E70122054B5242CFE7C04640420F001A
:10566000C41E00205875002060750020FFFFFF7FDA
:1056700070B5040011F078FF01230100050001223C
:105680002000FFF77FFE084B1C68002C06D06368E3
:10569000002B05D098472469002CF8D1280070BD54
:1056A0002469002CF3D1F9E7587500207047C046F3
:1056B0000022014B1A707047E87B00204B790020D4
:1056C000FF2B0BD18B79002B08D1CB79012B05D186
:1056D000082A03D98A78024B09301A707047C046ED
:1056E000E87B00200120704710B5012909D1154938
:1056F0005379107909781B0203430020994202D0A4
:1057000010BD0120FCE75378012B08D0022BF7D104
:10571000002064220021FCF7CBFC0120F0E7D378C5
:1057200091781B021943DB0507D54A0A10000123B3
:105730001A407E331940FCF741FD01204A0A4042DD
:10574000F5E7C046E87B002000487047C08F011095
:1057500070B5050014000120012909D153780020FB
:10576000012B05D1637912791B021343072B00D05B
:1057700070BD21002800024A9F3301F061FAF7E76B
:10578000E48F01100123037000487047A08F0110BF
:1057900048780B788A780002184312041043962246
:1057A000CB7810B51B060343D200934200D010BD46
:1057B0000022012011004042FCF700FD024B18605E
:1057C000024B19607047C046187100201C71002000
:1057D00010B5024B1878FBF78FFC10BDE97B002059
:1057E000154B70B51A68002A22D0EFF3108172B6FB
:1057F00010680028FCD0BFF35F8F00220F4859606B
:1058000002701B68BFF35F8F1A6081F31088002459
:1058100000250B4E3078FBF763FC002804D10024F0
:1058200000252900200070BD3078FBF765FCF8E703
:10583000FA240025A400ECE76C7A0020EA7B002023
:10584000E97B002070B5040000200E0001F022FB6F
:10585000002835D0002001F033FB002830D0FCF7C1
:1058600095FA0023184A12184B41002B24DB174DE0
:10587000280013F06DF9002822D0002001F00AFB67
:1058800000280BD1012000210324404200F00AFD32
:105890006442280013F02CF9200070BD002001F0B4
:1058A0000FFB0028EED021003200002001F014FB95
:1058B000041EEED1033CECE70122054B5242D6E731
:1058C00003246442E8E7C04640420F00F07A00201B
:1058D000FFFFFF7F10B5FCF759FA00230E4A12189C
:1058E0004B41002B13DB0D4C200013F031F9002845
:1058F0000CD001200021404200F0D4FC002001F037
:1059000035FB0028F5D1200013F0F2F810BD01227C
:10591000034B5242E7E7C04640420F00F07A0020B6
:10592000FFFFFF7FF8B5DE46574680B505000C0047
:10593000FCF72CFA0023364A12184B41002B5ADB95
:10594000344908008A4613F003F9002803D1C0BC8B
:10595000BB46B246F8BD002001F09CFA00284ED0AC
:105960000026002C43DD2C4B9B4614E0A919002097
:1059700001F038FB070001200021404200F092FCBA
:10598000002001F0F3FAFCF701FA234BF619186036
:105990005960B4422BDD002001F046FBA71B02003A
:1059A000B84200DD3A00002AE0D101200021404247
:1059B00000F078FC002001F0D9FA002001F06AFA2A
:1059C000002814D0002001F02FFB0028E1D1FCF7C3
:1059D000DDF95B460F001A685B68002184460F48BA
:1059E00012184B419F4202D8D3D19445D1D9504689
:1059F00013F07EF8ABE70122094B5242A0E70020EA
:105A00000021054B18605960504613F071F89EE76D
:105A100040420F00F07A00207867002020A10700A4
:105A2000FFFFFF7F30B52A4C85B00021200013F026
:105A30007FF800281CD1274B1A68002A16D0EFF3F4
:105A4000108172B610680028FCD0BFF35F8F01246C
:105A50002148596002781B68D2B20470BFF35F8F8F
:105A60000020186081F31088002A17D005B030BDDF
:105A700001200021404200F015FC002001F020FA36
:105A80000500200013F034F8002DEFD0134B1B68F5
:105A9000002BEBD0124A10689847E7E7FBF738FF76
:105AA0000400FCF773F9FA220023920012184B410C
:105AB000002B09DB012102910021019109492000FD
:105AC0000091FBF729FFD1E70122074B5242F1E792
:105AD000F07A00206C7A0020EA7B00201871002008
