:020000041000EA
:1000000000B5324B212058609868022188439860DF
:10001000D860186158612E4B002199600221596106
:100020000121F02299502B49196001219960352056
:1000300000F044F80222904214D00621196600F024
:1000400034F8196E01211966002018661A6600F04E
:100050002CF8196E196E196E052000F02FF8012189
:100060000842F9D1002199601B49196000215960AB
:100070001A491B48016001219960EB211966A021F2
:10008000196600F012F800219960164914480160C1
:100090000121996001BC002800D000471248134993
:1000A000086003C880F30888084703B5996A0420EC
:1000B0000142FBD001200142F8D103BD02B5186610
:1000C0001866FFF7F2FF186E186E02BD00000240BE
:1000D000000000180000070000035F00212200005C
:1000E000F4000018222000A00001001008ED00E03C
:1000F00000000000000000000000000074B24E7A12
:1001000000200420F7010010C3010010C5010010F9
:10011000C1010010C1010010C1010010C101001097
:10012000C1010010C1010010C1010010C701001081
:10013000C1010010C1010010C9010010CB01001065
:10014000CD010010CD010010CD010010CD01001037
:10015000CD010010CD010010CD010010CD01001027
:10016000CD010010CD010010CD010010CD01001017
:10017000CD010010CD010010CD010010CD01001007
:10018000CD010010CD010010CD010010CD010010F7
:10019000CD010010CD010010CD010010CD010010E7
:1001A000CD010010CD010010CD010010CD010010D7
:1001B000CD010010CD010010CD010010CD010010C7
:1001C00000BE00BE00BE00BE00BE00BEEFF3058054
:1001D000103800BEF2EB887170A4011090A40110D9
:1001E0003802001090A31AE71E481F49086006C88D
:1001F00081F3088810471D480068002801D019487D
:10020000F3E70DA40ECC002902D000F012F8F9E7B4
:100210001749184A002000E001C19142FCD116495B
:100220008847164988471649884700BEFDE701C937
:1002300001C29A42FBD3704790A40110C000002075
:10024000CC1E00209CC201100000042000000420ED
:100250009CC20110001004200010042000000000C7
:10026000704700000000000008ED00E0000000D032
:10027000CC1E0020347B0020D553001081050010D7
:10028000CD530010F8B5C0460448054B10B5834265
:1002900003D0044B002B00D0984710BDCC1E00208B
:1002A000CC1E00200000000006480749091A8B10E8
:1002B000C90FC91810B5491003D0044B002B00D04A
:1002C000984710BDCC1E0020CC1E0020000000006E
:1002D00010B5074C2378002B09D1FFF7D5FF054B4C
:1002E000002B02D0044800E000BF0123237010BDA2
:1002F0008069002000000000548C0110054B10B5EF
:10030000002B03D00449054800E000BFFFF7CCFFF5
:1003100010BDC0460000000084690020548C01100C
:1003200070B50C0001F0B8FC00230B4A06000D006C
:1003300002F02EF8002320606160074A3000290097
:1003400002F026F8100053019B1A9A001218D200EE
:100350000020A26070BDC04640420F0010B5054CA1
:100360002378002B01D1012010BD05F033F90023C3
:100370002370F8E7C00F002001207047F0B5C64693
:100380000F001600984600B5002A0ED0002402E0A7
:100390000134A64209D03D5D280005F06BF9854285
:1003A000F6D00123424626001370300080BCB846C8
:1003B000F0BDC046F0B5C64600B517001C00884623
:1003C00001F06AFC02000B00002F23D06101091B21
:1003D00089000919C9000C00CD17A4185D41002639
:1003E00008E005F0FBF8831C0DD043469855013614
:1003F000B7420BD001F050FC22002B00121A8B41A7
:100400001000002BEDDA0123069A1370300080BC37
:10041000B846F0BD0026F9E730B587B06A461D4BF7
:10042000938201F039FCFA2200239200801859418E
:10043000002927DB0025184C05AA0223029003910E
:1004400000956821200007F029FF642001F060FB7F
:100450006B465D7501F020FCFA22002392008018A3
:100460005941002912DB0023029003910093682177
:10047000023305AA200007F011FF0A2001F048FB13
:1004800007B030BD012005494042D3E701200349B0
:100490004042E8E76B80FFFF84100020FFFFFF7FF2
:1004A00010B50B490B4807F0CFFE0321052000F0E3
:1004B0009FFC0321042000F09BFC00220121052069
:1004C00000F0B0FC00220121042000F0ABFC10BDC4
:1004D000A08601008410002030B587B001F0DCFB5D
:1004E00000231B4A80185941002928DB0123194D9C
:1004F000002202900391009328210233280007F084
:10050000CDFE002305AC238001F0C6FB0023104A7A
:1005100080185941002916DB0023029003910093B3
:10052000220028212800023307F0DCFEFC2320787B
:100530009B01000218406378184307B030BD0120CA
:1005400005494042D2E7012003494042E4E7C04662
:10055000A086010084100020FFFFFF7F10B5FFF789
:10056000BBFF03F089FA044C0022206021000348FD
:1005700007F0A6FF10BDC0464C7900208C79002002
:10058000F0B5DE464E4645465746E0B589B005F023
:1005900021F8FFF785FF5A4B00219946594B01205E
:1005A0009846594B42460193584B00934B4608F0EE
:1005B00069FFFA207821800008F07EFF002800D033
:1005C0009AE0534E02AD280008F0BAFE33002A002C
:1005D00013CA13C303CA03C300224E4F11003300D2
:1005E000380008F0B5FD4C4B4C4A9A464C493B004C
:1005F000504608F0F7FD09F01BFF51460200494B39
:10060000494808F029FE494B39009B46484B494A66
:1006100000935846002308F053FE474C3300022253
:100620003900200008F0D0FA5946200008F02CFBD1
:10063000354B42460193354B0021009301204B4638
:1006400008F020FF04F0C6FF3C493D4807F0FCFDE0
:100650000321042000F0CCFB0321052000F0C8FB9F
:1006600000220121042000F0DDFB002201210520F1
:1006700000F0D8FBFFF7D0FEFA207821800008F0C8
:100680001BFF8046002808D00120404209B0F0BC82
:10069000BB46B246A946A046F0BD280008F050FE71
:1006A000330007CD07C3380006CD06C333004246EA
:1006B000414608F04DFD09F041FD51460200214B35
:1006C000214808F0C9FD214D214B224A39000093F1
:1006D0002800002308F0F4FD2900200008F0D4FAD7
:1006E000A02241461C48520003F0DAFA0023200001
:1006F0001A4A08F0F5FCF9E7194805F007F8C3E7CE
:10070000790300105D030010B50300107D03001095
:10071000706F0020147A002058790020C0A20110C8
:10072000748C0110808C01108C790020487A002094
:100730005D0500100065CD1DA0650020801A060033
:10074000841000208C8C01102C790020307900203E
:10075000D10D001080F0FA024C79002000E1F5057F
:10076000588C0110F0B5C64600B580468CB010001C
:1007700019006C4A6C4B02F044F86A4A04000D0000
:1007800012981399684B02F03CF8664A06000F0075
:1007900014981599644B02F034F8002200900191EE
:1007A000624B2000290002F00EF80022604B02F09C
:1007B00028F804000D0002F009F9049005912000CA
:1007C000290002F019F9002206900791574B3000DA
:1007D000390001F0F8FF0022554B02F012F8040036
:1007E0000D0002F0F3F806000F002000290002F0CF
:1007F00003F9002208900991009801994B4B01F0F0
:10080000E2FF00224A4B01F0FCFF04000D0002F061
:10081000DDF8009001912000290002F0EDF832008F
:100820003B00029003910498059901F0EAFF089AB1
:10083000099B04000D000698079901F0E2FF3200C1
:100840003B000A900B910698079901F0DAFF089A8D
:10085000099B069007910498059901F0D2FF009A30
:10086000019B06000F002000290001F0CAFF029A38
:10087000039B049005910A980B9901F0C2FF0200B6
:100880000B000498059901F095FF434618605960E4
:10089000029A039B2000290001F0B3FF009A019BFC
:1008A00004000D000A980B9901F0ABFF02000B0049
:1008B0002000290001F075FF43469860D960029A34
:1008C000039B0698079901F09CFF009A019B040086
:1008D0000D003000390001F094FF02000B002000F1
:1008E000290001F067FF434618615961009A019B96
:1008F0000698079901F085FF029A039B04000D00FA
:100900003000390001F07DFF02000B0020002900BB
:1009100001F047FF43469861D96140460CB080BC66
:10092000B846F0BD182D4454FB21094000806640B4
:100930000000E03FF0B5DE464E46574645463B23B5
:10094000E0B597B008AAD375814601F0A5F9FA225F
:100950000023920080185941002900DA1BE202901E
:10096000039108A901238C461722EE4C00936244A0
:100970006821200007F092FC01F08EF9FA22002392
:10098000920080185941002900DA18E200230EAEC7
:10099000029003913200682100932000063307F093
:1009A000A1FC738808AADBBA069343233788D37562
:1009B000B58801F071F9FA2200239200801859419C
:1009C000FFBAEDBA002900DAF5E10290039108A917
:1009D00001238C461722009362446821200007F00F
:1009E0005DFC01F059F9FA22002392008018594168
:1009F000002900DADBE10023029003913200682134
:100A000000932000063307F06DFC338808AADBBA98
:100A100098467388DBBA0493B388DBBA9A464123BD
:100A2000D37501F039F9FA22002392008018594158
:100A3000002900DAB7E10290039108A901238C464E
:100A40001722009362446821200007F027FC01F080
:100A500023F9FA220023920080185941002900DA74
:100A60009DE100233200029003910093682102333C
:100A7000200007F037FC380002F0FEFFE221890574
:100A800002F0EDFFA84902F0EAFF8346069802F063
:100A9000F3FFE221890502F0E2FFA34902F0DFFF44
:100AA0000690280002F0E8FFE221890502F0D7FF56
:100AB0009D4902F0D4FF041C404602F0DDFF9B4933
:100AC00002F0B9FF9A4902F0CAFF8046049802F08A
:100AD000D3FF964902F0AFFF954902F0C0FF071C13
:100AE0000B90504602F0C8FF904902F0A4FF9049D5
:100AF00002F0B5FF4D468246404603F017F88035B8
:100B000028606960381C03F011F8A860E96050465D
:100B100003F00CF828616961584603F007F828666D
:100B20006966069803F002F84B46E833089009918D
:100B300018605960201C02F0F9FF2867696701F00E
:100B4000ABF8002900D119E1FA220023920001F04C
:100B50001FFC784F05003868002800D118E1281ADA
:100B600002F084FF744902F066FF04903D60211C8E
:100B7000201C02F074FF5946071C584602F06FFF14
:100B8000391C02F055FF02F0D1FF01F009FF02000D
:100B90000B000898099901F016FE01F09FFF0D0067
:100BA00006990400081C02F05AFF391C02F040FFAD
:100BB00002F0BCFF01F0F4FE80231B065B440690AC
:100BC0000791180002F0B2FF069A079B01F0FBFDA7
:100BD00001F084FF069007914046584902F03FFF1C
:100BE000574902F028FF554980460B9802F037FF1D
:100BF000534902F020FF5149071C504602F02FFFD5
:100C00004F4902F018FF4F498246404602F010FF5C
:100C1000049902F024FF4C4B9B46196802F008FF30
:100C20005B46804618604949381C02F001FF049970
:100C300002F015FF464B9B46196802F0F9FE5B4631
:100C4000FA211860071C8905504602F0F1FE04994C
:100C500002F005FF3F4B9A46196802F0E9FE534641
:100C6000186002F063FF0022049005913A4B2000C7
:100C7000290001F0C6FDC022384BD20501F0A3FDCA
:100C80008022374B920501F08CFD01F07DFE354945
:100C900002F0E5FE3449041C404602F0E0FE011C6F
:100CA000201C02F0C5FE02F041FF002202900391D9
:100CB00006980799284B01F0A4FDC022274BD205C6
:100CC00001F081FD8022294B920501F073FD01F0B6
:100CD0005BFE244902F0C3FE2349041C381C02F0C9
:100CE000BEFE011C201C02F0A3FE02F01FFF049AAE
:100CF000059B009001913000FFF734FDB368F46864
:100D00004A469361D4613369746913625462B3696A
:100D1000F4699362D4620E9B0F9C1363546317B003
:100D200026E0C046841000200AE81C41000003436E
:100D300035FA8E3C8879002000007A440000344364
:100D4000DB0F49400AD7A33C20750020D5787940B5
:100D500024750020207B002000806640FB21094094
:100D60005C8FE23F0AD7233D8FC2753FAE47F93F04
:100D7000F0BCBB46B246A946A046F0BDFA218900A8
:100D800001F0C8FA104F05003868002800D0E6E6E8
:100D900000230493EAE601200C494042DFE50120EC
:100DA0000A4940425DE601200849404243E60120ED
:100DB000064940421FE601200449404205E6012061
:100DC00002494042E2E5C04688790020FFFFFF7FEC
:100DD00010B50448FFF7AEFD00220349034807F0B1
:100DE0006FFB10BD386600204C7900202C79002064
:100DF00010B54024084A83009A181268C000544075
:100E0000C0222240054CA44663441A60044B9C4611
:100E10006044416010BDC04604C0014004D00140A0
:100E2000004001400B4B80009C46604400290ED1DD
:100E300000230431002A00D11900802203685201E6
:100E4000594094460C2360440B40036070470C21CA
:100E50000823EFE704C001408023DB051868000F7A
:100E60007047C0460FB400B5084883B004F04EFC8C
:100E7000049B002B07D005A91800019104F03CFA4F
:100E8000034804F043FC012004F04EFA988C011052
:100E900064A3011070B5EFF3108C72B60D4D2B6882
:100EA000002BFCD0BFF35F8F0724CB08C618C05CB3
:100EB00001230C40A3401C000440034207D103431C
:100EC0003370BFF35F8F2C608CF3108870BD1000FF
:100ED000FFF7C8FF2C0100D0F8B54746CE4688463C
:100EE00080B5EFF3108C72B6214D2C68002CFCD02D
:100EF000BFF35F8F9A422CD8D4080727055D0619E7
:100F000001241740BC402C421FD0072101278946ED
:100F100009E0D408055D06194C4639001440A1408B
:100F20000C00294211D001329342F2D201204042FA
:100F3000BFF35F8F00220E4B1A608CF310880028DD
:100F40000FDBC0BCB946B046F8BD2C43100034706E
:100F5000EEE7BFF35F8F00232B608CF31088012036
:100F600040424346002BECD00898FFF77BFFC04679
:100F70002C0100D0044A1078431CDBB2172B00D997
:100F8000102313707047C046C10F002000B5054BF9
:100F900083B00100009318221F230348FFF79CFF32
:100FA00003B000BDA88C01108C7000200021044B00
:100FB000044ABFF35F8F02C39342FAD17047C04621
:100FC000000100D0800100D0054B064A1360064A9C
:100FD000136053609360D3601361536193617047F2
:100FE0008080808000E400E004E400E01F231840DB
:100FF0001E3B8340002905D0C021044A49005350BC
:1010000013607047802201498B50FAE700E100E04D
:1010100001228240034B1B6813405A1E9341D8B2F1
:101020007047C04600E100E001238340014A13609D
:101030007047C04600E200E0064B10309B6880001D
:10104000C358054A00209B1A2F229A424041C0B241
:101050007047C04600ED00E0C40F002070B50D00E1
:10106000EFF3108672B60F4A1368002BFCD0BFF363
:101070005F8F0D4B10309B6884001B590B4A9342C5
:1010800003D09D4201D001F03FF8074B9B681D51F2
:10109000BFF35F8FBFF35F8F0022024B1A6086F3AE
:1010A000108870BD240100D000ED00E0CD010010DB
:1010B000F0B557464E46DE464546E0B585B00600DB
:1010C00002911700EFF3108B72B6674A1368002B7A
:1010D000FCD0BFF35F8F0025644B5D579A46002D0F
:1010E00000DAA4E06B00624C03935B199B00984606
:1010F000A146C1444B4652469B79103613705D4B56
:10110000B2009B68019299580B1B2F2B34D95A4B74
:10111000994200D0A4E0039B584A9C46584B654432
:10112000AD006353434602336519E418554B012162
:10113000043B1B1B1B055B0D13436B80524BEF7174
:10114000AB80FF23AB71029BAB604B460B43190096
:10115000484B019A9B689950BFF35F8FBFF35F8F35
:101160000022414B1A608BF3108805B0F0BCBB46DF
:10117000B246A946A046F0BD01200A008243D379B9
:10118000BB422FD845464E46130040491B1B5B41CE
:101190005943090D3A4B63533A4B02356519043BE9
:1011A0005B1B1B05354D5B0D2B4373800426B4463A
:1011B000E0444444131F1B1B4C46A17102991B05BC
:1011C000A16049465B0D2B43A380314BE77101437E
:1011D0001360BDE75800C01880002018C679BE42D1
:1011E0002BD902000623D356002BF3DA101D8246BA
:1011F0002848804604267642B446E14450464E468E
:10120000361A3005400D824656461C4895710643F5
:101210009680039A944665441D4AAD006419226085
:101220004246A371029BA280E771A36090E700F0A1
:101230006BFF002553465D5754E7101D824690888A
:101240004005001584464046D444664604302018C4
:10125000301AE0260005400D360230438046C9E7CB
:1012600000F052FF57E7C046240100D02F7B00203A
:10127000C40F002000ED00E0CD01001000E0FFFFF2
:1012800000A1FFFFF40F002001BDFFFFAAAA00008C
:101290000148804701BD000070B501240443EFF30D
:1012A0000581EFF3108C72B6214A1368002BFCD035
:1012B000BFF35F8F1F4B05001F4AED1A6D416A4354
:1012C000120D1E4D8900AE6852B27658A6421CD04F
:1012D0000621595691421CD012215956914222D0D2
:1012E0001E215956914220D02A2159560324914259
:1012F00010D0134B19781A708171BFF35F8F0022E1
:101300000B4B1A608CF3108870BDAB680D4C5C50B1
:10131000EFE700246100091989005B18FF2199712A
:1013200009499980E5E70124F4E70224F2E7C04681
:10133000240100D0C40F0020AAAA000000ED00E0A4
:101340002F7B0020CD01001001BDFFFF00B5074B32
:1013500083B001000093002205230548FFF7BCFD80
:10136000002801DB1F23181A03B000BDC48C011034
:10137000337B0020024B9C4661448900016070472A
:1013800040000034F8B5134D134E2C00FF27B54232
:101390001ED22368002B0FD0FFF7ECFD01002800C0
:1013A000FFF7E8FFA780BFF35F8F0834B4420FD286
:1013B00023682500002BEFD1FFF7DCFD010028009A
:1013C000FFF7D8FF2771BFF35F8F0834B442EFD324
:1013D000F8BDC046C41E0020CC1E002010B504007D
:1013E000FFF7C8FD01002000FFF7C4FFFF232371B2
:1013F000BFF35F8F10BDC04610B504000120FFF79A
:10140000C5FD044B9C46604480002060BFF35F8FA5
:1014100010BDC04640000034034B9C466144890027
:101420000160BFF35F8F7047400000340A4B1968BA
:10143000EFF3108072B60A68002AFCD0BFF35F8F0A
:101440001B68BFF35F8F00221A6080F3108840BFD3
:10145000002000217047C046E8790020F0B5DE4644
:1014600057464E464546E0B585B0EFF30582032367
:1014700013409A0011000392B64A52589046012236
:101480009A409146B44B1A604B46B4484363434676
:1014900008229B5E9A46002B3DDA43469B881BB28E
:1014A000002B00DBA1E043469B79002B00D0F3E04A
:1014B000434608241C5F002C23DB4246526963002C
:1014C00094461B19DB0063449C68DD68631C00D1F3
:1014D0000FE1A248039984466144826A0B69A61A07
:1014E0009B1A9E4215D34A46036A1A4211D09B4862
:1014F00000F0CAFB241A8D41002D02DCC4D1002C5F
:10150000C2D040BF05B0F0BCBB46B246A946A0461B
:10151000F0BD0C61EBE7424652695B0093465344D1
:10152000DB009B445B469E68DF6800F0ADFB801BE0
:10153000B9410029B1DB002F00DAE5E05B46884ABB
:101540001B69934200D1D8E041465A460820085E04
:101550005288000410435A465169984704000D0010
:1015600023002B4300D1CFE0002D00DBE8E0361B49
:10157000AF4134003D005B469C60DD600021595E58
:10158000002900DA89E743465B6922009C462B006C
:1015900048004018C00060448668C768921BBB4181
:1015A000002B00DA79E74346664602000094019575
:1015B00019810CE07B00DB19DB00F318009801991E
:1015C0009C68DD68001BA941002904DB1A00002388
:1015D000D75E002FEEDA5B461F80534613804346EA
:1015E0009B881BB2002B00DA5DE743461A69EFF3D4
:1015F000108172B61368002BFCD0BFF35F8F434697
:101600009B8842461BB29A4601235B429380136932
:10161000BFF35F8F00221A6081F310885346002BBE
:1016200000DA40E743465B699C46082343449B46F7
:1016300053465F0043465744FF0008229A5E6744C2
:101640005E46BC68FD68002A19DB3B0000940195EA
:1016500067469C4604E01E000023F25E002A0BDB76
:101660000098019953009B18DB00FB189C68DD680B
:10167000001BA9410029EEDA6346BC461F00534611
:10168000338000217B5E3A809A46002BD0DA4346B5
:101690009B79002B00D10BE7002342469371434610
:1016A00046460821595E08364B1C00D129E74746BB
:1016B0008C46556902E006004B1C17D04B005B18A6
:1016C000DB00E8180A00E95E43881BB2002BF2DA5F
:1016D00001235B42DC178360C4606245ECD031803B
:1016E0003B89944603803A814B1CE7D1B846644657
:1016F000E1E66B1C00D0ECE6F9E65B465C69200095
:1017000023699847002821D15B4642461B881381F4
:101710001269EFF3108372B611680029FCD0BFF391
:101720005F8F4246594652880A8042465146518050
:101730001269BFF35F8F0021116083F31088ACE65C
:10174000064800F0A1FA24184D4114E765682468A2
:1017500006E7C046787900203C700540004005400F
:101760005D14001070B52E4C2569002D04D00A219F
:101770002C48FFF7FFFD70BD2B4E0321300000F019
:1017800079FAE660FFF7F6FB284B03229C46D0234C
:1017900022701B061B6801216370254B6044A36007
:1017A0000F23800020610220638063694942A18089
:1017B00019800231198647311D83585218315A5207
:1017C00075325C399952183201319952183201310F
:1017D0009952183201319952083518329D5202310E
:1017E00018329952183201319952183201319952F6
:1017F000183201319952183201319952183201319F
:1018000099520C4B0C49DC6001303562FFF726FC25
:1018100001210320FFF7EAFB084B1D60A7E7C04644
:101820000C100020E8790020004005404000003402
:10183000FFFF1000787900205D140010386005402B
:10184000004870470C100020F8B51F0008AB1B784B
:1018500004001600002B07D100F01EFA32003B00F6
:10186000121A8B41002B4CDB2269EFF3108072B609
:101870001368002BFCD0BFF35F8F62690223E15E27
:1018800094464B005B18DB006344002901DB1A8897
:1018900062802269BFF35F8F0025156080F3108896
:1018A000002930DB069A9E60DF601A61079A5A6150
:1018B0005A8801325204520C161C002A1FD0B0B2B2
:1018C0000A045E8010432669EFF3108572B6326811
:1018D000002AFCD0BFF35F8FA2881A80A180236901
:1018E000BFF35F8F00221A6085F3108807492378C1
:1018F0008C4601329A40E36863441A60F8BD0126C1
:10190000DDE70020FAE701204042F7E73C20000035
:1019100070B5C646010000B50469EFF3108C72B6CD
:1019200020680028FCD0BFF35F8F02200D5E48695D
:101930006C0080466419E4004444002D01DB2088DB
:1019400048800869BFF35F8F002606608CF310881B
:10195000002D30DBE36063880598013320615B0470
:1019600006985B0CA26060611A1C002B21D090B21B
:101970002B04628018430A69EFF3108672B613686D
:10198000002BFCD0BFF35F8F8B8823808D800B6989
:10199000BFF35F8F00221A6086F310880B78013244
:1019A0009A40CB6805498C4663441A6040BCB046F7
:1019B00070BD0122DBE701204042F7E73C20000038
:1019C00010B543890A14934233DD53009B184269D2
:1019D000DB00944604696344EFF3108C72B622680E
:1019E000002AFCD0BFF35F8F5A88090494B2090C17
:1019F0008A4208D00369BFF35F8F00221A608CF31C
:101A00001088002010BD8022120214435C80012344
:101A100002698371BFF35F8F002111608CF310881E
:101A2000054902788C469340C268012062441360E5
:101A3000E8E70020E6E7C0463C2000004078704719
:101A4000F0B504000D0006267642F717C646361993
:101A50006F4100B582B08F4214D811D000F01CF94C
:101A600032003B00121A8B41002B15DC002B44D0B6
:101A70002000290000F044F902B080BCB846F0BD57
:101A80008642EBD90026002700F006F932003B0021
:101A9000121A8B41002BE9DD00F0FEF832003B000A
:101AA000121A8B41002B0ADB00230193144B3200E6
:101AB000009314483B00FFF72BFF0028D8DBB0460B
:101AC0000026BC46104A114F7B6A9C4504D8B96A6F
:101AD0008845CDD99C45CBD11168EFF3108072B603
:101AE0000B68002BFCD0BFF35F8F1368BFF35F8FD1
:101AF0001E6080F3108820BFE6E7002AB8D0CBE74D
:101B00002D1400100C100020E87900200040054042
:101B100070B5060000F0C0F8FA2204000D000023A2
:101B200030000021920001F063FF00196941002993
:101B300002DBFFF785FF70BD012001494042F8E755
:101B4000FFFFFF7FF0B5CE46474680B504000D008D
:101B500083B0EFF30587002F0DD0364A0020536A7B
:101B60008B4203D3926A0130A24250D303B0C0BC6F
:101B7000B946B046F0BD304B9846DB6899464346BF
:101B800048461E7800F080F80B00494602000436F3
:101B9000B600715820008E1A2900801A99418F4290
:101BA00011DC0ED020BF234A0020536AAB42DDD3A4
:101BB000926A0130A242D9D2E81A421E9041C0B2C4
:101BC000D4E78642EED900F067F822002B00121A03
:101BD0008B41002B20DB00230193184B2200009344
:101BE00040462B00FFF794FE011E15DD114B2E0021
:101BF0005A6A95421CD89B6AA34217D34046FFF706
:101C0000DFFE0C4A0020536A9E42AFD8D0E7581A34
:101C1000421E9041C0B2A9E7064A0020536AAB4277
:101C2000A4D3926A0120A242A0D2C5E79542E5D191
:101C300020BFE3E7004005400C1000202D140010E9
:101C4000084A4368516A10B5046800208B4203D8E3
:101C5000926A0130A24200D310BD5B1A5A1E934112
:101C6000D8B2F9E700400540026043600048704781
:101C7000411C001010B5024A0248FFF70BF910BDD5
:101C8000E88C0110907000200300416A0A00986AF5
:101C9000596A8A42FAD17047034B596A0A00986A16
:101CA000596A9142FAD170470040054070B504006E
:101CB0000D00124A536A1900966A536A8B42FAD190
:101CC0003000190024184D41AB4211D80ED02B0022
:101CD0000A494A6A9A42FCD307D1084A02E0516A8B
:101CE000994202D1916AA142F9D370BDA642EED9C0
:101CF000012301246442E5175B42E9E70040054007
:101D0000064A536A9942FCD807D1044B02E05A6A4A
:101D1000914202D19A6A8242F9D37047004005404D
:101D2000F8B5DE464E4657464546E0B58B460500BB
:101D30000A991800160000F0EDFA0A9B6C001F02C9
:101D4000324B64199C46A4006444636881469F42F8
:101D500000D967602B1FDBB29846012B30D9C02316
:101D600080229B01E31812011A60294BAD005959DA
:101D70009A4600291BD1226876017240E026802312
:101D8000164042465B01E3181E60012A30D98023C9
:101D900080229B01E31812011A6053464A4667608D
:101DA0005A51F0BCBB46B246A946A046F8BD586998
:101DB00000F0B0FA431C5800C0180338FDD2DAE72F
:101DC0005B46012BCBD1C02303229B01E3181A6091
:101DD000023AA3681A42FCD0E023226876015640FA
:101DE0001E4080230A4A5B019246E3181E60AD0044
:101DF0005A462168514003220A401A6001225B467C
:101E00009A40A3681A42FCD0C1E7C0460080004057
:101E1000A4700020F0B546464F46D646C0B51F0018
:101E2000344B44009C462418A400644463688846EC
:101E30001600FF2B02D880235B006360031FDBB218
:101E40009A46012B30D9C02380229B01E31812014E
:101E50001A60294B85005959994600291BD12268DF
:101E600076017240E0268023164052465B01E3185B
:101E70001E60012A30D9802380229B01E3181201C1
:101E80001A6080235B0063604B465F51E0BCBA463A
:101E9000B146A846F0BD586900F03CFA431C580012
:101EA000C0180338FDD2DAE74346012BCBD1C0235B
:101EB00003229B01E3181A60023AA3681A42FCD07D
:101EC000E0232268760156401E4080230A4A5B01C7
:101ED0009146E3181E608500424621685140032266
:101EE0000A401A60012342469340A2681342FCD084
:101EF000C1E7C04600800040A4700020014B800074
:101F0000C0587047A4700020F8B5040020481D0098
:101F100017000E0000F0FEF90100380000F0FAF999
:101F2000069B29041B0319432368002B1EDB194B56
:101F3000194DE21853425A4180235B019C4612031B
:101F4000164B62441A60164B1A6017002B689F43A9
:101F5000FBD1144B2660E2182123A0601360236894
:101F6000002BFCDA0823E1601360F8BD3F232268F0
:101F70001340B342DBD1A3681B051B0D8342D6D1AE
:101F8000EE22E368D20213408B42D0D1EDE7C04687
:101F9000001BB7000040FDBF08C0004000E000404B
:101FA00000F000400430000010B5140080221B4BEC
:101FB000D2051A6000281AD00123194A1843194B78
:101FC000DA61194A42401A62596298628022134BC0
:101FD000D2051A601549164A1160E022D2041A602F
:101FE000002C07D18022134B12061A6010BD0D4B36
:101FF000D861EBE763011B1B9A00802312191201C1
:102000005B049A4200D30C4A0C4B1A60054B5A6091
:102010008022084BD2051A60E8E7C04600B00540B0
:10202000D3C007B0008005402D3FF84FFCFF0100F2
:102030000820014000A00540FFFFFF004879002074
:102040008023024A9B000B43D36270470080054007
:10205000142310B50100188804331B88984710BD5D
:10206000162310B50100188802331B88984710BD4D
:10207000F8B54746CE4680B50F1E19D014239946B1
:10208000043304000025012698464B461888434631
:1020900021681B88984701C4431E9841013540427E
:1020A0000640AF42F1D13000C0BCB946B046F8BDE1
:1020B0000126F8E7142370B50400188804331B8840
:1020C0000D000549984703000020002C01DB01307A
:1020D000A04029009847C04655420000AA23064A5E
:1020E0001B0113608D235B00D3600449044B19600E
:1020F0005368002BFCDA70470040024000B0FA0041
:10210000006002407047C04610B50148FEF7AAFEC5
:102110000C8D011070B5074D074EB54209D2002451
:10212000013E761BB60808CD984723000134B34220
:10213000F9D170BD088C0110448C0110054B064A82
:1021400006491A60064A074B1A6010000B6898434C
:10215000FBD1704700E00040BFCDFBFE08C000404F
:10216000FE7F3C0000F00040044BDB6C002B03D1F1
:102170008022034BD2021A607047C0460000115003
:102180004C201150044A054B1A60054A1368DB01C4
:102190008033FBD17047C046FFFFFF0100F00040D5
:1021A00008C000404022034B9A675A671A67DA66F4
:1021B0007047C04600F0014010B5FEF7F7FE10BDB5
:1021C00070B5044D044C2800C022A16801F06EFDDA
:1021D000A56070BD0000002000ED00E0002310B5F8
:1021E000294C82B0A367FFF779FF0122274B1A60C1
:1021F000636C012BFCD10322254B1A60224A936B9E
:10220000012BFCD1013300930121224A22480433DF
:10221000FFF77AFE052301210093204A2048FFF7AB
:1022200073FE0022022104201E4BFFF7F3FD002263
:10223000012105201C4BFFF7EDFD002200210720A6
:102240001A4BFFF7E7FD002200210820174BFFF78C
:10225000E1FD8023DB000093002200210920134BC5
:10226000FFF75EFD0022104B00210620FFF7D2FD94
:102270000420FFF743FE0E4900F04CF80100002057
:10228000FFF7DEFE02B010BD008000403CB0004011
:1022900030B00040002F685900800240008C864713
:1022A00000C00240001BB70040597307006CDC02FD
:1022B00040420F0001480421014B18473010002014
:1022C00071200010124A936F9B0815D29066D16658
:1022D000002905D0FFE7FFE7FFE7516F106F704758
:1022E00004B580210906C2175140002800D0C84318
:1022F00016F03AFC002104BDF0B5146E556E576F10
:10230000166FFFF7E3FF1466556657671667F0BD53
:10231000000000D0114A936F9B0813D210665166DB
:10232000002905D0FFE7FFE7FFE7516F106F704707
:1023300004B5002801D00020C04316F015FC002190
:1023400004BDC046F0B5146E556E576F166FFFF79B
:10235000E5FF1466556657671667F0BD000000D0AC
:1023600094464A4A926F9208624601D228E0C046DB
:10237000F0B5464E346E756E776F366F00F020F80C
:102380009446424A14665566576716676246F0BD22
:1023900094463E4A926F9208624601D254E0C0468B
:1023A000F0B53A4E346E756E776F366F00F04CF8BC
:1023B0009446364A14665566576716676246F0BDFE
:1023C000002B24DB11D000293EDA00B5C94340427E
:1023D00000D1013100F038F8C943404200D1013149
:1023E000DB43524200D1013300BD002AEBD100286B
:1023F00001D1002905D00020C90FC90701D1C04370
:10240000410800B516F0A8FB0022002300BD00B56E
:1024100000290ADBDB43524200D1013300F014F8FB
:10242000C943404200D1013100BDC943404200D1FF
:102430000131DB43524200D1013300F005F8DB43A8
:10244000524200D1013300BD002923D1002B18D105
:10245000002A0CD0BC460D4F38667A660021002356
:10246000FFE7FFE7FFE77A6F386F6746704700289E
:1024700001D00748010000B516F06EFB00220023D2
:1024800000BD02000B00002000217047000000D0BA
:10249000FFFFFFFF002B00D0BFE0130C28D1002A64
:1024A000E7D080B4114F39667A66FFE7FFE730B4B2
:1024B000040C7B6F396F1B0423433B667A66FFE78E
:1024C000FFE7FFE7C04684B27B6F3D6F1B042343E9
:1024D0003B667A66FFE7FFE7C04600232C042D0C1D
:1024E0007A6F386F00196941B0BC7047000000D0A6
:1024F000F0B594460025140E01D112020835140FD0
:1025000001D112010435940F01D192000235D40F8C
:1025100001D152000135D40B0134254F7C66254C86
:102520003C660E0C93B2FFE7FFE7FFE73C6F6643A4
:10253000360C7703BE467343DF0B5B04C01AB94108
:10254000130C7343DB18C91ACE086643360CB64425
:1025500093B273431F0F1B01C01AB941130C73438D
:102560001F0B1B05C01AB941860D8F023E436643FF
:10257000360C092D24DB520A7243801A7703460A6F
:102580006643360C16235B1BDE40DF40BF196446F2
:102590006643821B7046043506330100D940A840CB
:1025A000C01900D30131A24206D20023F0BD0000C1
:1025B000000000D0FFFFFFFF121B0130F3D3F1E753
:1025C00009277F1BFE406446A2B27243801A00D2E4
:1025D0000139220C7243130C1204821A99410B0028
:1025E0007046043513370100F940A840801900D324
:1025F0000131002B02D1A2420AD2F0BD013000D33A
:102600000131121BFAD2013BF8D1A24200D2F0BD37
:10261000013000D30131121BF7E7F0B51C0C00D0DC
:1026200080E00CB400251C0A04D11B02160E3343B3
:10263000120208351C0B04D11B01160F3343120183
:1026400004359C0B04D19B00960F33439200023556
:10265000DC0B02D192185B4101351C0097186441D4
:102660000134464F7C66464C3C660E0CFFE7FFE7A4
:10267000FFE7C0463C6F6643360C7703BE4697B211
:102680007743C01B00D20139C01B00D201399FB271
:102690007743C91BC91B170C77437E04FF0B801BB4
:1026A000B941CE086643360C0C2D33DBB644120B11
:1026B0001F053A431B0B97B27743C01B00D2013969
:1026C0009FB27743C91B170C77433E043F0C801B16
:1026D000B941860D8F023E43664329277F1BFE408A
:1026E0000C3D7746AF40BF1930BCA2B2ABB27243CB
:1026F0007343801A9941220C7243130C1204801AFE
:10270000994102000B000137001BA941F9D2781E44
:102710000021F0BD0C277F1BFE4077467F0BAF40AA
:10272000FF19E0E700245D1C07D0144F7D66396671
:10273000FFE7FFE7FFE7FFE73C6F95B29EB2654317
:102740006643401BB141150C1E0C654366433604BD
:102750002F0C3E432D04401BB141994204D202008C
:102760000B0020000021F0BD01D19042F7D3801A68
:10277000994101349942F2D3F6E70000000000D0FD
:10278000FFFFFFFF44464D4656465F46F0B4704794
:10279000F0BCA046A946B246BB46704748404140FF
:1027A000484018B41B4B5B68FC46019308BD04DF2E
:1027B000FF2D001018B4174B1B68FC46019308BD91
:1027C00000DF092E00109446134A926F920809D236
:1027D000624618B40F4BDB68FC46019308BD0CDF62
:1027E000C13000100C4AF0B5146E556E576F166F5D
:1027F0006246FFF7EEFF084A14665566576716678C
:10280000F0BD18B4034B9B68FC46019308BD08DF7C
:10281000652F001080670020000000D0FFB55040F9
:102820004240504059404B40594000E0FFB5154FE1
:102830004C00640D03D0BC4204D10C0314D800201A
:10284000090D09055C00640D03D0BC4204D11C03D2
:102850000AD800221B0D1B0501264B4009D44B4012
:1028600003D58B4200D18242FFBD9942FCD19042F8
:10287000FFBD0B43DB1803431343F5D0C94349188D
:10288000FFBD0000FF07000000B5FFF7CFFF80414C
:1028900000BDC04600B5FFF7C9FF01D9002000BD4B
:1028A000012000BD00B5FFF7B9FF01D9002000BD30
:1028B000012000BD00B5FFF7B1FF804100BD012040
:1028C00040054A00121804D85A00121801D80020F6
:1028D00070470120704700000021002805D1704793
:1028E000C1174840401AFAD0C90713B5064B1B68F8
:1028F00098470CBC441CA2401005120B0349091B4D
:1029000009051943114310BDE47900201F0400009C
:1029100010B54C00620D8023D218DB00D21A5B0583
:102920007E2A10DD9E3A13DACC17090349081943B1
:102930005242D140640001341532202A05DAD040D9
:102940000843604310BD002010BD0846604310BD21
:10295000C80FC018013810BD18B4044B5B6AFC46A0
:10296000019308BD24DF9D34001000008067002023
:1029700018B4044B1B6EFC46019308BD60DFAB35F9
:10298000001000008067002018B4044BDB6FFC4689
:10299000019308BD7CDF3535001000008067002002
:1029A00018B4044B9B69FC46019308BD18DF8D32B7
:1029B0000010000080670020024A034B00B500F0C1
:1029C000FDF900BD182D4454FB2119408A0002D3A3
:1029D000920D092A08DA18B4064BDB6BFC4601930A
:1029E00008BD3CDFDF36001000B5FFF7E5FF04BC93
:1029F0009646F0E7806700208A0002D3920D092AEC
:102A000008DA18B4064B1B6CFC46019308BD40DF86
:102A1000EF36001000B5FFF7CFFF04BC9646F0E795
:102A20008067002018B4044B9B6DFC46019308BDE1
:102A300058DFDD370010000080670020132370B5D9
:102A40001D78012D19D014DD1E48FFF709FB060083
:102A50001D48FFF705FB1D4C80223100200001F0CE
:102A600025F9022D06D01A48FFF7F2FA194B186023
:102A700070BD164C184BA364F5E7174B134C23603D
:102A80006360A360E36023616361A361E361236228
:102A90006362A362E36223636363A363E363236408
:102AA0006364A364E36423656365A365E3652366E8
:102AB0006366A366E36623676367A367E367A3644C
:102AC000D1E7C04653440000534600008067002011
:102AD0004C330000E4790020CD2D0010094A70B578
:102AE0000B0D93420AD0084A934204D00022074BB0
:102AF000FFF798FF70BD06480649FBE70448064902
:102B0000F8E7C046FF070000FF0F00000000F03F9D
:102B1000182D4454FB21F9BFFB21F93FF0B557466E
:102B20004E464546DE46E0B587B002925A009A46C8
:102B3000530D9946109B4D0004006D0D002B01D0E4
:102B400000221A609A4A95427DD04B46002B7AD0DB
:102B5000002D00D182E027000E00914575D0013B89
:102B60000393AB4271DCCB0F0E039846330B9B46AD
:102B700080235B039C465B46624613431F0053461B
:102B8000060018036346000B0343029A0193039B5C
:102B90000092AB4200D1AAE04346002B00D1B7E03F
:102BA00033003C0000275E42A7414B46ED1A002D42
:102BB00000DCC0E00120019B40421911FFF7AAFB95
:102BC000002398464B4603935346AB46029004932A
:102BD0001BE032009A4015003300524693401C001F
:102BE0004B464846D917009A019B00F001FF434627
:102BF000524693404B4498465B4626002F009B1A52
:102C0000361A8F419B46002B2BDD5B46DA460C2B98
:102C100001DD0C239A46029ABB11534351461D22F3
:102C2000521A1341202201335B10524299468B18ED
:102C3000CFD5202332005B1ADA4013003A008A40D5
:102C400015001D43C8E700275A4E3800310007B071
:102C5000F0BCBB46B246A946A046F0BD0027002600
:102C6000F3E7039B9946049B9A46009B019CBC4258
:102C700000DD83E000D17DE0009B019CF61AA741B6
:102C8000BC4200DD8BE000D185E0009B019CF61A80
:102C9000A74102239C46E0443200009801993B0082
:102CA00092197B418B421ADC17D000998A425AD084
:102CB0005346002B02DA43465B429846109B002B9A
:102CC00001D042461A604B463B4A30003900D21AC6
:102CD000FFF74EFE07000E00B7E78242E5D9009BE2
:102CE000019CF61AA74101239C46E044E0E7019BC2
:102CF0009F422FDD00980199434600184941002B5F
:102D00003FD1039B361A8F41994601239846CFE75E
:102D10004B46ED1A002D00DD4CE7019BBB42BBDCAE
:102D2000009B019CBC4201D1B342B5D8009B019CE1
:102D3000F61AA74133E000239846009B019CF61841
:102D40006741002F2FDAF618674102235B429C4649
:102D5000E044A1E7009A019B9F4201D19642C9D865
:102D600027000E0071E7019A9342A1D14346DB0789
:102D70009ED5B4E7009BB34200D87DE7002FDCDB93
:102D80008AE7039B801BB941994601235B420600F9
:102D90000F0098468CE7009BB34200D875E70123EB
:102DA0009C46E04478E701235B429C46E04473E79D
:102DB000FF0700000000F07F3304000010B500247E
:102DC00082B00094FFF7AAFE02B010BD07B56046BE
:102DD00001880A0A0230DF2AFAD1C9B2820804D374
:102DE000028840880004104300E00068014A505007
:102DF000039007BD806700200FB403BC0CBCF0B586
:102E00000124E407634000E0F0B50C0DCF0F661E0F
:102E10003605891B640503D3C943404200D3013101
:102E2000640D03D0661CF60A07D0E41B00207F0067
:102E3000791C89078912803C24031D0DDF0F6E1E4B
:102E400036059B1B6D0503D3DB43524200D3013390
:102E50006D0D03D06E1CF60A07D0ED1B00227F001B
:102E60007B1C9B079B12803D2D032F1B661B58D498
:102E7000A446202E46DA20371400BC401D00BD4079
:102E8000F24033412A4380185941CB0F05D0C94342
:102E9000C043002264425041514162464D0D28D149
:102EA0000D0D07D100281FD0241940414941013A96
:102EB0000D0DF9D0640006D3013000D30131002C90
:102EC00001D140084000013A0BD4941CE40A04D11B
:102ED00012051144DB071944F0BDD907204B1943F3
:102EE00000E0D9070020F0BD0029DDD1002CDBD1A6
:102EF000F0BD0132C6074008CD0728434908002E1F
:102F0000E1D0D9E73C2E29DA203E40371400BC40FE
:102F100000D00124F24014431A00BB401C43D317D5
:102F2000ACE7AC46202F08DA20360400B4400D0090
:102F3000B540F84039412843A5E73C2F0CDA203F43
:102F400040360400B44000D00124F8400443080097
:102F5000B1400C43C117EAE710001900002494E7C0
:102F60000000F07FF0B50C0D661E3605891BE60AE1
:102F70006405640D02D0651CED0A04D00020012117
:102F80000905803C2403A4461C0D671E3F05DB1B7E
:102F9000E70A6405640D02D0651CED0A04D0002226
:102FA00001231B05803C24037740644497B484B21A
:102FB00096B27443070C7E43150C6F4380B268438E
:102FC000361802D3012000043F183004350C0019D4
:102FD0007D41844688B29AB250430C0C62431F0C68
:102FE0007C438EB27E43921902D301263604A41983
:102FF0001604170C3618674101BC81B29AB25143CE
:10300000040C62431B0C5C4380B25843121802D379
:103010000120000424181004130C401863412D18DB
:103020005E410020474106BC88B293B258430C0C65
:103030006343120C544389B251435B1802D30121FC
:103040000904641819041A0C091862416D185641D4
:103050000020474118BCF902720D1143F0026A0DBD
:103060001043ED020A0D03D16D1940414941013B66
:10307000124E9B1B7600B3420ED26D0007D3013077
:10308000002671416646354301D1400840001B05CA
:10309000C918E4072144F0BD0BDA013306D1013031
:1030A00004D101314F0D01D04908F2E7E1070020BA
:1030B000F0BD013631050020EBE70000FF03000002
:1030C000F0B51C0D671E3F05DB1BE70A6405640DA8
:1030D00002D0661CF60A04D0002201231B05803CA6
:1030E0002403D0252D060026F6432E661E096E66A3
:1030F000CE0FF619B44649004F0D02D07E1CF60AD9
:1031000003D000200021403F3F033E1BB600B444E3
:10311000013F7F05C91B49082E6F013676089C02C6
:10312000950D25437543ED137543AD1301356D10B2
:10313000F603761B0CB4CC02450D2C43A2B2B3B2FD
:103140005A43270C7B43350C6F43A4B26C431B19C5
:1031500002D3012424043F191C041D0CA4187D4132
:1031600024196D41009A91B2ACB26143170C7C43B3
:103170002B0C5F4392B25A43A41802D301221204CB
:10318000BF182204230C52187B41019C6C431B196D
:10319000520ED9010A434401A01A81B2B2B251437E
:1031A00003145A43360C734387B27743D617D219A8
:1031B00000277E4136049B191704160C7F185E41C8
:1031C0007316ED18F301002680337541A90F06D15F
:1031D0006400690AE8055B0A184309D22FE004225B
:1031E000944480337541A90AA8059B0A184326D345
:1031F000404149412404009A019B0D005543641B42
:103200004343E41A95B286B27543170C7E43030C10
:103210005F4392B25A43B61802D301221204BF1878
:103220003204330C52197B4152429C41002C02D48F
:103230000022013051414008CA071043490802B03A
:103240006246D7079210084BD218084B9A4203D215
:1032500012058918C919F0BD0020002A01DC3900C7
:10326000F0BD01331905F5E7FD030000FE0700007E
:1032700007DA002107E0C90FC907520D03D0C912B0
:1032800001E04C49090500207047C0464A00F2D2CF
:10329000520D013A484B9A42EAD2F0B51405091B87
:1032A000520801D3001849419B08D21812059446D0
:1032B00040A44A0CA25C0B09534353431B135343D2
:1032C0005B131202D21A13005B435B0B4C0863437F
:1032D000DB135343DB1501335B10D21A130CD21AE4
:1032E00013005B438902840D21438DB29EB2754366
:1032F0000F0C7E431B0C5F438CB25C43361902D328
:10330000012424043F193404330C64197B419D01CA
:10331000A40E2C432034A5B25543241454432D0C41
:103320006419A411D203121B95B28EB27543170C07
:103330007E430C0C674393B26343F61802D3012318
:103340001B04FF183304340C5B197C41DB18644107
:10335000DB18002363419EB276439DB21F0C7D4370
:103360007F436C04ED0BA4197D4106028F08361BC8
:10337000AF417D07F6086E41B4B295B26C43371485
:103380007D43120C5743B6B25643EA17AD190026D7
:1033900072411204BF182E042A0C36197A410832E1
:1033A000521117D29D0A9C05D11710196941614429
:1033B000F0BD0000FF070000FE070000F8EBDFD6BD
:1033C000CDC5BEB8B2ADA8A4A09C9995928F8D8AA8
:1033D0008885838152415D0ADC05D11714194D415E
:1033E0002B006343A6B27643A2B2270C7A437F43F5
:1033F0005104D20B89197A41D218D218800549425A
:10340000904102D4002301345D4160086908ED0752
:1034100028436144F0BDC046624618CA94465A46E5
:10342000002A20DB04E0624618CA944600291ADA12
:10343000C01861415B463B415C46B4405246FA408D
:10344000224344464D4662416B41904699462B4685
:10345000B3403D41FC401C4352465B46A241AB4158
:1034600092469B467047C01AA1414B463B414C4691
:10347000B4404246FA40224354465D4662416B41A5
:1034800092469B462B46B3403D41FC401C4342467E
:103490004B46A241AB41904699467047002200B589
:1034A000203200F010F8080000BD002200B500F046
:1034B0000CF8CA179A4200D100BDD8430121C907B0
:1034C000414000BD00220B150AD410B5944600F00F
:1034D000A7F81414013400DA0021CB17144C20474C
:1034E0000020002170476244343A0CD40C2A07DAD9
:1034F00004009140904052422032D440214310BDFC
:10350000D843D94310BD203207D40C4694405242D0
:1035100020321141D040204310BD0800C91720328D
:1035200003D452422032104110BD1800190010BDC2
:10353000E73400104A00520D144BD21A13DDFF2A53
:103540001EDAD205CB0FDB071A43C300400F090375
:10355000490A084310435B0001D301D00130704792
:103560004308FBD2704702D0C80FC00770470A0358
:1035700012130132F8D1420F072AF5D1012200E0DF
:10358000FF22C80F00028018C005704780030000AA
:1035900000210A00002104E000210A00C11704E014
:1035A0000022002306E0C0460022CB1758405940B5
:1035B000C01A994130B5184CA21A002903D1010054
:1035C00010D00020203A4C1512D104D2013A001834
:1035D00049414C0DFAD3114CA24204D2120589186C
:1035E000DB07C91830BDD243520D00200021F5E79A
:1035F00003D4013A00184941FBD50B324405C00AF7
:103600004D052843C90A640003D00024604161418C
:10361000E1E7E0D34408F8E732040000FE070000C9
:103620000A0DCC0F531E1B05C91A520503D3C943FB
:10363000404200D30131520D03D0531CDB0A07D0A6
:10364000121B00206400611C89078912803A120352
:10365000014BD21A70470000FF030000023225D44C
:103660000C2A1CDA1125AD1A0B002B410832073544
:103670000600EE40904091403143F0CC63431A1570
:1036800000235A41554356435743BF02F41276056F
:1036900076196741ED177F19801BB94170470C22DD
:1036A0000020C917490001310905DBE70902030EB3
:1036B000194300025342203208D40C0019419440AF
:1036C000D840204300225041514170470800C9179B
:1036D000203B2032F1D50020002100227047F0B5B8
:1036E000FFF750F800F00EF800F030F806E0F0B503
:1036F000FFF748F800F006F800F046F8FFF748F842
:10370000F0BD000000B5FFF78BFF30A4FFF7A6FF68
:1037100000242C4D2C4ED20702D3F6436D42664155
:10372000520004D2A246A346A846B14603E0A046F2
:10373000A146AA46B3466EA4A44601271F26FFF75A
:1037400072FE0137013E212FF9D100BD594684B2E6
:103750008DB26C43061475430B145E4382B25A4318
:10376000AD18EA1700D7D2431204B6182A042B0C5E
:1037700012197341404649469D009B17920F2A43F8
:10378000904199413E2210E7494684B28DB26C4384
:10379000061475430B145E4382B25A43AD18EA1700
:1037A00000D7D2431204B6182A042B0C1219734105
:1037B000504659469D009B17920F2A43504159414C
:1037C0003E22F2E6BB4DF09DC556F6367D51000017
:1037D0001A61140085880A00FB211900F0B5FEF774
:1037E000D1FF404D0C002C4001D0AC4202D1090D5C
:1037F000090500201C002C4001D0AC4202D11B0D59
:103800001B0500220026ED02002B04D502266B408A
:10381000694000D476424F1904D599420CDD013637
:10382000694003E0BB4207DA013E6B40070010002D
:103830003A000F0019003B0040B4002A0FD1002BC2
:103840000AD05C006415013409D14C0064150134C0
:1038500002D10139013B02E0002000212EE0FFF7F8
:103860002FFC3E22FFF722FE82468B4600200021DD
:1038700080460122920791461DA4A44601271F26D7
:10388000FFF7CAFD0137013E212FF9D14A465346C1
:103890000C3A01246407002752081B0005D4934109
:1038A000001979416408F7D104E05341001BB94184
:1038B0006408F1D1CE0749104008304340BC002EC7
:1038C0000AD0094C094D01D5E443ED43F60701D177
:1038D00000196941001969413D22FFF766FEFEF7B4
:1038E00057FFF0BD0000F07F8D305A88A8F64332B4
:1038F000694FBB610567AC1DB16E4096FCBAAD0F58
:1039000072DB0BABA66EF50739BD9FE576ABFE0308
:103910004B6297BA5BD5FF01D694DBDDAAFAFF00B4
:103920005DEAEE5655FF7F006E77B7AAEAFF3F00CB
:10393000BCBB5555FDFF1F00DEADAAAAFFFF0F005F
:103940006F5555F5FFFF0700ABAAAAFEFFFF030066
:103950005555D5FFFFFF0100ABAAFAFFFFFF00009E
:103960005555FFFFFF7F0000ABEAFFFFFF3F000060
:1039700055FDFFFFFF1F0000ABFFFFFFFF0F000023
:10398000F5FFFFFFFF070000FFFFFFFFFF03000041
:103990000000000000020000000000000001000024
:1039A0000000000080000000000000004000000057
:1039B00000000000200000000000000010000000D7
:1039C00000000000080000000000000004000000EB
:1039D00000000000020000000000000001000000E4
:1039E0000000008000000000000000400000000017
:1039F00051434343C9188C46110C83B24B4310B456
:103A0000040C614392B280B2504362431C041B0C0D
:103A1000001910BC59411304120CC01851416144E3
:103A2000704700004840414048400E4B5B681847D3
:103A30000C4B1B6818470C4A936F9B0802D2094B2A
:103A4000DB681847F0B5146E556E576F166FFFF7A9
:103A5000F6FF054A1466556657671667F0BD014BB9
:103A60009B68184780680020000000D0491A002891
:103A700008D1084670470000C10FC90700D5404271
:103A8000002817D0F44603B40B4B1B68984706BCBC
:103A900081409E384042803107D20B0607D0490052
:103AA000490AC0051043084360470130F8E7490A56
:103AB0008902F5E770470000E479002041000A0E12
:103AC00080231B067E2A0BDD9E3A0BDAC1174002CB
:103AD000400818435242D0404900013148437047E2
:103AE00000207047C00FC01801387047C0420DD386
:103AF00000B540004008002100F012F8002801D471
:103B0000404200BD8020000600BD0000034BDB6981
:103B1000FC4618471CDFD13B0010000080680020E5
:103B2000014B5B6A1847000080680020034BDB6F85
:103B3000FC4618477CDFE93B00100000806800204D
:103B4000132310B512481C78FEF78AFA0100012CE5
:103B50000AD003DD80220F4800F0A8F80E48FEF7D7
:103B600077FA0E4B186010BD0A4C5422200000F06A
:103B70009DF80B4B6365A365E36523666366A366E7
:103B8000E36623676367A367E3672362E361E5E7AF
:103B900053460000806800204C330000E479002088
:103BA000A53B001007B5604601880A0A0230DF2AEB
:103BB000FAD1C9B2820804D30288408800041043B5
:103BC00000E00068014A5050039007BD8068002063
:103BD0000021C2158032803201D0024A10470020F5
:103BE00070470000CD2A0000C30FDB0741000A0E1A
:103BF00007D0FF2A08D00909054A89181943400748
:103C000070471900002070470249C918FAE7000000
:103C1000000000380000F07F10B5040012F0F2FE42
:103C2000002804D0034B04199C4200D810BD024860
:103C3000FDF718F900000420188D011070B505007B
:103C40000C0012F0B9FD6C43002804D0034B04199A
:103C50009C4200D870BD0248FDF704F90000042022
:103C6000188D011010B50C0013F03CFA002804D098
:103C7000034B04199C4200D810BD0248FDF7F2F82E
:103C800000000420188D011010B512F0C5FE10BD03
:103C900001480421014B18474010002071200010FA
:103CA000014B1B681847000040100020014B5B6867
:103CB0001847000040100020EFF3108C72B6074B3D
:103CC0001A68002AFCD0BFF35F8F41680068BFF319
:103CD0005F8F00221A608CF310887047340100D087
:103CE00030B514001D00EFF3108172B6074B1A684F
:103CF000002AFCD0BFF35F8F04604560BFF35F8F85
:103D000000221A6081F3108830BDC046340100D013
:103D100030B5010014001D00EFF3108C72B6094895
:103D20000368002BFCD0BFF35F8F0A684B680C6000
:103D30004D60BFF35F8F002101608CF3108810008D
:103D4000190030BD340100D09A4200D28854704727
:103D50007047C046F8B557464E464546DE46E0B584
:103D600099460A9B07009A460D9B88469346150084
:103D70000B9E9B0710D10C9B9E420DD29D1B1400E5
:103D80000E005D4422004B46013431002020B8472C
:103D9000A542F7D1B0460B9E002E27D04446751998
:103DA0005346AA1B013E985D21004B46B847002EA2
:103DB000F6D123002C0098460D9B9B070FD55B4640
:103DC000E51A0C9BAB420AD94646984622004B4660
:103DD000310020200135B8470134A845F6D820002D
:103DE000F0BCBB46B246A946A046F8BD2C00E3E7AE
:103DF000F0B54F464646D646C0B584B098460EABA1
:103E00001B78129F994694460D9C109B119EBA07F1
:103E100025D4002E4BD19C4200D3BFE001223A4072
:103E200092461F2C00D9B8E00C9A551E302201E0B2
:103E3000202C03D001342A55A342F9D85246002A37
:103E40000DD0A6420BD9202C44D00C9A551E3022FE
:103E500001E0202C3ED001342A55B442F9D1FA06B3
:103E60004DD57A053FD4002C39D10F9B102B00D1B2
:103E700079E00F9B022B00D18AE030230C9A0124B9
:103E800013704B46002B3FD02D230C9A1355013451
:103E90000C9B624600930397434602960194FFF7FA
:103EA00059FF04B0E0BCBA46B146A846F0BD0122B5
:103EB00015003D40AA463A422FD04A46002A02D178
:103EC0000C323A4200D0013E9C42BAD21F2CABD9F0
:103ED000202E27D92024FA06DAD57A0503D4A34266
:103EE0002DD0A6422BD00F9B102B32D0022B20D0EE
:103EF000202CCDD030220C9B1B191A700134202CA1
:103F0000C6D04B46002BBFD17B070DD43B07BFD596
:103F100020230C9A13550134BAE79C429FD21F2CE0
:103F200000D881E720249AE72B230C9A13550134FB
:103F3000AEE7202CACD00C9B1B1901343AE0631E79
:103F4000012C92D00F9A102A2AD0022A2FD01C00BE
:103F5000D0E7BB060ED4202C9AD00C9B1A19013442
:103F600078231370C4E7BB060DD478230C9A012480
:103F70001370BFE7202C00D18AE758220C9B1B1935
:103F80001A700134B4E758230C9A01241370B1E776
:103F90000C9A603301241370ACE7202400265EE7FE
:103FA000023CBA06E9D40C9A12191C00D8E70C9A04
:103FB0009246534462221A709AE7C04610B5002810
:103FC00000D110BD01F056FBFBE7C046F0B5DE4660
:103FD00057464E464546E0B59BB09B46249B8946D6
:103FE0009846259B0B900C924046424619009A46F3
:103FF000FEF765FC002800D0D8E00122404651467B
:10400000774B5242FEF756FC002800D0CEE001224A
:1040100040465146734B5242FEF736FC002800D012
:10402000C4E00022002340465146FEF72DFC002844
:1040300000D0B9E1424653460A9209938023289A58
:10404000DB001A400E92289A1A4201D106232693C9
:104050000A9A099B1600134300D0C7E0289B00254D
:1040600000261B0500D49BE100230D93269A0D9B8F
:104070009A4200DC9FE1D01A431E26938023289A9F
:10408000DB001A430023002728920D93279B00246E
:10409000BB4200D9DC1B0223289A1A400E92289AB0
:1040A000134203D07B427B415B421C400D9B002BA3
:1040B00007D00A9809992A003300FEF784FB0A907A
:1040C00009910022002340465146FEF7DDFB0028FF
:1040D00005D0802000068446099961440991289AF8
:1040E000414B0B9D13400493269B0A9A0293099B14
:1040F00003940092019349465B4628000C9A00F015
:104100008BF90400002F62D0289B220098061F2301
:10411000C0179843631C984649465B466530A847DC
:104120000D9B0025DA179C18DB0F9A465440013F7F
:1041300001E0202D13D00AAA94461F2320006344D7
:104140000A2101355E19FEF7E5F8303131702000A3
:104150000A21FEF7DFF826000400092EE9D805231E
:104160000693002304930A330393534605970B9F4A
:10417000029312AB009342465B46494638000195D4
:10418000FFF736FE0E9B0400002B20D00C9BC51AB7
:10419000279BAB421BD91E0022005B4649462020CC
:1041A0000135B8470134AE42F6D810E0289B4246AC
:1041B0000493279B49460393269B0B9802935346EF
:1041C000009201935B460C9A00F026F9040020004F
:1041D0001BB0F0BCBB46B246A946A046F0BDC046E7
:1041E000FFFFEF7FFFFFEFFFFFF7FFFF734B099F1D
:1041F0009C467800400D6044FEF772FB704A714B9C
:10420000FEF7FFFA704A714BFEF7D4FA3B03704A8F
:104210001B0B1A4304000D00300011006D4B0022EF
:10422000FEF7BFFA6C4A6D4BFEF7EBFA02000B008B
:1042300020002900FEF7BEFAFEF76AFB0D90FEF79C
:104240004FFB674A674B04000D00FEF7DAFA0022C5
:10425000654BFEF7AFFAFEF75BFB644A0600644B62
:1042600020002900FEF7CDFA040030000D000F9663
:10427000FEF736FB5F4A604BFEF7C3FA02000B0005
:1042800020002900FEF78DFA02000B0006000F0047
:10429000FEF7B7FA320004000D003B003000390091
:1042A000FEF788FA002210901191544B200029004B
:1042B000FEF789FA0022524BFEF77CFA02000B004F
:1042C00020002900FEF77FFA00224E4BFEF772FA1B
:1042D00002000B0020002900FEF775FA0D00802176
:1042E000040032003B000020C905FEF75AFA020024
:1042F0000B0020002900FEF75DFA02000B00109869
:104300001199FEF760FA0022314BFEF753FA3E4B4B
:104310000F9C9C46644400222305FEF772FA0500B8
:104320000E0002000B000A980999FEF7ADFA00286A
:104330000AD00D9B2800013B31000D930022304B29
:10434000FEF741FA05000E00C6270D992B006331D8
:104350008F42BF4128997F420437090500D495E672
:10436000334300D182E6099C284A2100284B0A9851
:10437000FEF798FA002808D000222100254B0A9861
:10438000FEF782FA002800D070E6269B002B00D1B1
:104390007CE60E9B5A1E9341269AD31A269375E605
:1043A000002304270D9371E643460A9380231B06DE
:1043B0005344099342E6002326935FE601FCFFFF86
:1043C000FB799F501344D33FB3C8608B288AC63F04
:1043D0000000F03F0000F83F61436F63A787D23FC2
:1043E00071A379094F930A400000E03F1655B5BB11
:1043F000B16B0240EF39FAFE422EE63F00002C403E
:104400000000244000001840FF0300002D431CEB77
:10441000E2361A3F80842E41F0B54E46DE465746BE
:104420004546E0B597B09946209E219F229B834642
:10443000984607910C923B00320030003900FEF79D
:104440003EFA002800D0A9E1012230003900CA4B11
:104450005242FEF719FA002800D0E1E001223000B4
:104460003900C64B5242FEF725FA002800D0B7E0CB
:10447000002230003900C24BFEF71CFA002800D0A1
:1044800099E0002230003900BE4BFEF7FDF900280C
:1044900000D090E00022002330003900FEF7F4F94C
:1044A000002800D0B1E000230D93249B5B0501D4CC
:1044B0000623984608AB9C46172200243023414629
:1044C000624404E0013413550139202C01D009293C
:1044D000F8D8884630003900FEF71AFA4346DA0069
:1044E000A94B05009B181A685B6808920993FEF7B0
:1044F000F7F902000B0030003900FEF752F9089A74
:10450000099BFEF77EF90A900B91FEF725FA824689
:10451000FEF7E2F902000B000A980B99FEF741F949
:1045200000229A4B0A900B91FEF7C4F9002800D1A3
:10453000C0E001239C46E2445046FEF7CDF902005C
:104540000B0008980999FEF7A5F9002802D000236E
:104550009A4601354346002B6AD008AB17269C4685
:1045600008956644554614E001235B4243440A2102
:1045700028009A46FDF7CEFE0134303137193970E4
:1045800028000A21FDF7C6FE092D00D8D0E0D0464C
:104590000500202CE8D10EAB98460323249A134043
:1045A000012B00D196E02023249A01930392239AB1
:1045B000434602921EE0249B58460493239B009698
:1045C0000197039343460C9A029307994B46FFF7D2
:1045D000FDFC17B0F0BCBB46B246A946A046F0BDF4
:1045E000249B5B070ED40322694B2499019203910B
:1045F00023990291009358464B460C9A0799FFF76E
:10460000A9FBE6E70422634BEFE73B003200002002
:104610000021FEF7C6F8012306000F000D9344E7C2
:10462000249B0393239B0293042301935A4BE1E7BA
:104630002800FEF755F902000B0030003900FEF7A4
:10464000B0F8524B002206000F00FEF71DF90EAB2A
:10465000984600280AD10022300039004B4BFEF763
:1046600029F9002802D1EB0700D50135202C94D080
:1046700008AA94461723280063440A2101341E190E
:10468000FDF720FE3031280031700A21FDF71AFEB7
:10469000051EEBD10323249A1340012B1BD0202CA1
:1046A00000D180E70D9B002B35D02D224146631CA5
:1046B0000A5579E700220A980B99344BFEF7E4F883
:1046C000002800D046E75346002B51D101239C46D9
:1046D000E2443FE72024239B002BE0D00D9B002BDE
:1046E00003D1249A0C33134202D0239B013B239322
:1046F000239BA342D3D908AB9C46172230236244A4
:10470000202C00D14FE72399013413558C42C6D099
:10471000202CF8D147E7249B5B0724D4249A23005C
:10472000120700D440E72022414601330A553BE7F7
:104730005746089D202C00D12DE72200302140460D
:10474000002F09D00132B154202A00D123E7D343EE
:104750001B191B18002BF5D10EAB98462E23414692
:10476000541C8B5482E72B224146631C0A551BE7DD
:10477000DB0700D4EEE6A9E7FFFFEFFFFFFFEF7FC7
:1047800065CDCD4165CDCDC1B88F01100000E03FB2
:10479000BC8D0110C08D0110CC8D0110249B0393A2
:1047A000239B029303230193004B23E7C88D011041
:1047B000F0B5DE464E4657464546E0B59FB01C0074
:1047C000289B91460993C94AC94B8B4608901A60A9
:1047D000002900D118E2002320789A46002800D151
:1047E0001AE226001D005C460AE02A006F1C4B46B8
:1047F000089D2100A8473D0001363078002870D080
:104800002528F2D110239B46083B9A46043B984644
:10481000023B00219C46721C107816000300203BCE
:10482000DBB2102B03D8B34F9B00FB589F4603000D
:10483000303B092B32D900230A932A2868D0002361
:1048400098462E283ED00300683BDBB2122B1CD8C2
:10485000A94A9B00D3589F46012301321943DBE745
:10486000634601321943D7E7434601321943D3E780
:104870005B4601321943CFE7534601321943CBE778
:1048800080235B007078194301360300253BDBB2BF
:10489000532BAAD8994A9B00D3589F460027030060
:1048A000B800C01901364000C018337830381A00FB
:1048B000303A0700092AF3D90A90180000239846D5
:1048C0002E28C0D180237078DB0019430300303BD1
:1048D000721C092B00D8A1E12A2800D1B2E11600F0
:1048E000B1E7A346AA462C00D14503D801235B4279
:1048F0004B449A464B46524659460020089DA847CD
:1049000020001FB0F0BCBB46B246A946A046F0BD91
:10491000099B40CB0A96002E03DB50780993561C66
:104920008DE72838014370420A9009935078561C4D
:1049300085E7782800D1DFE1582800D14CE26F28C4
:1049400000D14FE3622801D100F030FC10230A00AF
:104950009A430B92692801D000F0A9FC0A230C931A
:104960004B0500D5D0E10B9A802311009B00194024
:104970008B461A4200D0A1E2802311005B0019404F
:104980008A461A4200D0B6E313005B0600D5EDE27A
:10499000130009991B0601D400F076FC08C91BB26C
:1049A000D8171A18424092B209919346DA0F129220
:1049B000002B09D1802310220B99DB000B4091437F
:1049C0000B91002B00D0E4E20B9A6123920600D5F4
:1049D00041230EA91F228C46DBB262440A3B5F468C
:1049E0001395A34655460C9CB2460D9316000AE05B
:1049F0003033DBB201357355A74200D2EDE2202DF2
:104A000000D1EAE2070021003800FDF783FCCBB2B9
:104A10000929EDD90D9A94466344DBB2EAE7802375
:104A20009B007078194301362FE77078682800D111
:104A3000CDE180230136194327E770786C2800D137
:104A4000BFE180235B00194301361EE7462800D1F1
:104A50009BE10722099B0491073393430A9A1900AB
:104A60000392424602920CC9089800920193099160
:104A70002A004B462100FFF7CFFC01360500BCE6BB
:104A80002A006F1C4B46089D21002520A8470136AF
:104A90003D00B2E68B0700D4ADE1099B2A009A469F
:104AA0006B1C9846534601CB21009A46089F4B4603
:104AB000C0B2B8470A9B9C466544012B00D886E2E9
:104AC000089B4746B04626004C4699463A002300CC
:104AD000013731002020C847AF42F7D1A1465346E5
:104AE000340046460993013687E6C046B1470010B8
:104AF00044790020D48D0110188E0110648E0110AD
:104B0000099B04CB9B4643460992002B00D1C6E08B
:104B100013789C46002B00D1BDE34346013B099A24
:104B20000133D0180A9F130001E0834203D05A7862
:104B30000133002AF9D1099A0A979B1A0B93802313
:104B40000A00DB001A400C92194204D00B9B43452B
:104B500001D943460B9302231A000A400D920B42DF
:104B600000D187E16046002800D168E10C9B002B52
:104B700000D10DE1A844C246099B57465B1B9846ED
:104B8000089BB2462A0026004C46994609E02300BD
:104B90003100551CC8474346585D002800D126E126
:104BA0002A009742F3D1A1463D00340056460D9BA2
:104BB000002B00D043E15B46013609931DE6099BBB
:104BC0001A0008CA9246002B48D0212211438B4676
:104BD0000EA884461F216144099500220F27A44690
:104BE0000D0002E0202A0CD00B003C001C402000ED
:104BF0003730092C00D807380132A85419090F2B77
:104C0000F0D86446099D32E0DC4B207808930023FD
:104C10009A46002800D0E4E5002465E643460600F5
:104C20000A9F9800C01801324000801916780300CE
:104C300030003038303B0928F3D930009846160050
:104C40000A9700E6099B023604CB9046D2434046C1
:104C5000D2171040804609933078F4E510220800FE
:104C6000904311321043834600224905B0D55B467C
:104C700006930823059343460493102303930023CC
:104C8000029316AB019200932A004B46210008982C
:104C9000FFF7AEF85346050001360993ADE51378EA
:104CA0009C46002B00D1F7E202235B4237E720232A
:104CB00002009A43472A04D180231B01194302238F
:104CC0009843452801D1202319430722099B0491C9
:104CD000073393430A9A19000392424602920CC981
:104CE00008980092019309912A004B462100FFF792
:104CF0006DF90136050080E510230C930C230A00A2
:104D00009A430B924B0503D501230B9A9A430B92BE
:104D1000692800D127E6642800D124E60B9A802375
:104D200011009B0019408B461A4200D066E1802397
:104D300011005B0019408A461A4200D039E2130084
:104D40005B0600D53CE113001B0600D4A6E2099BDC
:104D500004CB1204120C934609935B46002B00D03F
:104D60009AE10B9A1033110099430B91520500D42C
:104D700092E100239A460B9B06930A9B05934346B8
:104D800004930C9B039300230CE12023194360E65A
:104D9000099B0A9A5B1B98464B4691461F00B246F8
:104DA0002600089C2A003B003100A04743460135FD
:104DB000585D0028F6D14A463400B94656460A9254
:104DC000F5E6C0239B00B078194302365DE5C023A9
:104DD000B0781943023658E50C230A009A4314337D
:104DE0001A43103B0B920C934B058DD496E7A146CA
:104DF00034005646DBE60A9A012A00D853E26B1EBD
:104E00009F18089BB04626004C4699462A0023006E
:104E1000013531002020C847BD42F7D1A1463400FA
:104E20004646099B3A0001CB210098467D1C4B4623
:104E3000089FC0B2B847434601360993DDE40B9B97
:104E40000A9AA8469A4200D8B5E694466544ED1AF7
:104E5000089B4746B04626004C4699463A00230038
:104E6000013731002020C847AF42F7D1A1463400B6
:104E70004646A0E60B9A0A99531C914200D814E2C8
:104E80004B199B1A1F00089BB24626004C469946B8
:104E90002A002300013531002020C847BD42F7D148
:104EA0000A9BA14601330B93099B34001B7856469D
:104EB0009C466046002800D058E67CE60722099B05
:104EC00007339343013294469C4462465F680992DB
:104ED0001A68FB171093119310981199030053400F
:104EE0000E930B007B400F9394460E9A0F9B121A61
:104EF0008B410E920F93FB0F6246129300233A43AD
:104F00009B463DD00B9A6123920600D54123002297
:104F1000DBB20EA90A3B8C4692460D9343461F32E4
:104F200062441395159655460E9E0F9FA2469046D5
:104F30000C9C14930CE03032D2B2434601355A55E2
:104F4000BB4500D18AE1202D00D18AE106000F0087
:104F50002200002330003900FDF71AFAD2B2092AE4
:104F6000E9D90D9B9C466244D2B2E6E7FF2309993A
:104F700004C913401A00099117E5C046513D0010BD
:104F80000B9A1033110099430B915205BAD50023A7
:104F90009A460B9B06930A9B0593434604930C9BEE
:104FA0000393129B02935346019316AB2A0000937E
:104FB00021004B460898FEF71BFF013605001CE454
:104FC000FF22099B02CB11408B460993C5E653464D
:104FD000454609930136FFF710FC56465C46AA4643
:104FE000139DD6E708230C930B910B99642800D0EE
:104FF00084E60B9B5B0500D586E6B4E40722099B9B
:1050000007339343013294469C44624609921A68DE
:105010005B6810009B4613005A46134307D10B9A56
:105020001033110099430B91520500D5A1E60B9A5C
:105030006123920600D541230022DBB20EA90A3B70
:105040008C4692460D9343461F3262445F4612954A
:10505000A34655460400B24690460C9E13930DE0BD
:105060003032D2B2434601355A550023BB4200D1FB
:1050700000E1202D00D100E104000F0032000023E8
:1050800020003900FDF784F9D2B2092AE8D90D9B36
:105090009C466244D2B2E5E70B9A6123920600D5A2
:1050A0004123DBB20EA90A3B1F228C460D9323003D
:1050B00062445C461295170055469B46B2460C9ECC
:1050C00008E03033DBB201357B55B4420ED3202DDE
:1050D0000CD0040031002000FDF71CF9CBB20929E7
:1050E000EFD90D9A94466344DBB2ECE756465C4632
:1050F000AA46129D3FE6099B1A0008CAD9171392C7
:105100005A184A409246DA0F1292002B08D1802397
:1051100010220B99DB000B4091430B91002B2BD1FC
:105120000B9A6123920600D541230EAA1F279446AD
:10513000DBB20A3B0D9567445D460993A34654468E
:10514000B2460C9E08E03033DBB201357B55B442E9
:105150000ED3202D0CD0040031002000FDF7DAF82A
:10516000CBB20929EFD9099A94466344DBB2ECE744
:1051700056465C46AB460D9D0B9B2A0006930A9B48
:1051800021000593434604930C9B08980393129BBC
:10519000013602935B46019316AB00934B46FEF734
:1051A00027FE139B05000993FFF727FB02230C93AF
:1051B0001AE7099B04CB92461293002A08D1802358
:1051C00010220B99DB000B4091430B91002B2BD14C
:1051D0000B9A6123920600D541230EAA1F279446FD
:1051E000DBB20A3B0D9567445D460993A3465446DE
:1051F000B2460C9E08E03033DBB201357B55B44239
:105200000ED3202D0CD0040031002000FDF782F8D1
:10521000CBB20929EFD9099A94466344DBB2ECE793
:1052200056465C46AB460D9D0B9B2A0006930A9B97
:1052300021000593434604930C9B08980393002395
:1052400002935B46019316AB00934B46FEF7D0FDED
:10525000129B050009930136FFF7CFFAB44200D83C
:1052600071E6149B54460E960F97AA469846159ED3
:10527000139D8EE6A64200D8FBE6139B5646984641
:10528000AA465C46129D76E508C9D8171A1842400E
:105290000991FFF78AFB00230B9350E4099B04CB91
:1052A0009346099359E52F00BBE50B9301E6063BB6
:1052B0000C939AE60CB410B584B006AC08CC0A0086
:1052C0000094010004480394FFF772FA04B010BC84
:1052D00008BC02B01847C046493D001000B583B075
:1052E000009313000A0001000248FFF761FA03B0BF
:1052F00000BDC046493D001010B5094A03001468BE
:1053000084B0002C08D0012200910648524203A923
:10531000A047012004B010BD00F0F8F90020F9E723
:1053200044790020BD3F001000BEFDE7094A03009C
:105330001068002805D00849C3188B4207D81360AD
:10534000704706480449C31810608B42F7D9012002
:105350004042F5E72875002000000420347B00203F
:10536000030010B508001100002B05D1044B1A688A
:105370005B6800F0D5F810BD01204042FBE7C04655
:10538000E08C01100300013B10B508001400012B54
:1053900006D801230022210000F042F8200010BDB1
:1053A00001204042FBE7C046012040427047C04612
:1053B000012040427047C046012040427047C0462D
:1053C0000300022200209A424041704710B5FFF7C7
:1053D000ABFFC04670B5FCF79DFE074D074EB542CA
:1053E00009D20024013E761BB60808CD9847230059
:1053F0000134B342F9D170BD448C0110548C0110BA
:10540000030010B5080011001B68984710BDC04686
:10541000030010B5080011001B68984710BDC04676
:10542000F0B5DE4657464E464546E0B585B0170016
:105430001C0006000D00FCF72FFC0023314A121857
:105440004B41002B59DB304908008A4613F0A4FB7E
:1054500001906B1C03D1300012F0B8F80500002C4D
:1054600026D12A4B98462A4B1C68002C15D0002FB9
:1054700021D1284F02E02469002C0ED02368002B94
:10548000F9D03B68002B01D0A342F4D120002A00C0
:105490003100C0472469002CF0D1019B002B28D19A
:1054A000280005B0F0BCBB46B246A946A046F0BDF8
:1054B000194B9846D7E7174B994602ABDF1D0A23D5
:1054C0009B4602E02469002CE7D02368002BF9D02A
:1054D0004B461B68002B01D0A342F3D12A003100B8
:1054E0002000C0475B460122390020003B70C047C6
:1054F000E8E7504613F028FBD2E70122074B52425F
:10550000A1E7C04640420F00C41E00200154001015
:10551000C4740020CC74002011540010FFFFFF7FE2
:10552000F8B557464E464546DE4698461A4BE0B516
:105530009A461A4B07000E0093469946184D53465B
:105540001C68002C03D115E02469002C12D02B68B4
:10555000002B01D0A342F7D1A368002BF4D0310077
:10556000380098470028EFDDF0BCBB46B246A9469C
:10557000A046F8BD4B465B6A984508D84A46926AF1
:105580005A4501D2984502D002204042ECE7012062
:105590000021FCF78BFBD2E7C474002000400540DB
:1055A000CC7400200A4A1368002B05D10CE01A00C5
:1055B0001B691032002B07D09842F8D1002902D184
:1055C00003691360016170470029FCD01060FAE79D
:1055D000C474002010B500F0D7FA10BDF0B5CE4667
:1055E0004746040080B583B0FCF756FB2600002731
:1055F00036184F41002F30DBB9461A4B1A4D9846EA
:1056000043461C68002C03D116E02469002C13D0FB
:105610002B68002B01D0A342F7D1A368002BF4D054
:10562000012101A898470028EFDD6B46187903B0E7
:10563000C0BCB946B046F0BD0C4B5A6A4A4507D3C8
:105640009B6AB34201D24A4502D002204042EEE7B3
:1056500001200021FCF72AFBD2E70126044B764209
:105660009946CAE7C4740020CC740020004005406D
:10567000FFFFFF7FF0B5CE46474680B583B06B464F
:105680000600DD1D2870FCF707FB00231A4A1218DC
:105690004B41002B2BDB19490800884613F07CFA9C
:1056A000174B81461C68002C14D0164F02E0246969
:1056B000002C0FD02368002BF9D03B68002B01D0C1
:1056C000A342F4D1200001222900FFF7A1FE2469A2
:1056D000002CEFD14B46002B05D1300003B0C0BCED
:1056E000B946B046F0BD404613F02EFAF5E7012268
:1056F000054B5242CFE7C04640420F00C41E002077
:10570000C4740020CC740020FFFFFF7F70B504003C
:1057100011F05CFF01230100050001222000FFF7CA
:105720007FFE084B1C68002C06D06368002B05D058
:1057300098472469002CF8D1280070BD2469002CFA
:10574000F3D1F9E7C47400207047C0460022014B32
:105750001A707047307B00204B790020FF2B0BD153
:105760008B79002B08D1CB79012B05D1082A03D9DD
:105770008A78024B09301A707047C046307B00208F
:105780000120704710B5012909D1154953791079C5
:1057900009781B0203430020994202D010BD01206A
:1057A000FCE75378012B08D0022BF7D100206422AC
:1057B0000021FCF7F9FB0120F0E7D37891781B0278
:1057C0001943DB0507D54A0A100001231A407E332E
:1057D0001940FCF76FFC01204A0A4042F5E7C04639
:1057E000307B0020004870472890011070B50500FC
:1057F00014000120012909D153780020012B05D183
:10580000637912791B021343072B00D070BD21006E
:105810002800024A9F3301F061FAF7E74C9001102B
:1058200001230370004870470890011048780B78F6
:105830008A7800021843120410439622CB7810B5E0
:105840001B060343D200934200D010BD002201206A
:1058500011004042FCF72EFC024B1860024B19600D
:105860007047C046847000208870002010B5024B3D
:105870001878FBF7D9FB10BD317B0020154B70B5B4
:105880001A68002A22D0EFF3108172B6106800283F
:10589000FCD0BFF35F8F00220F48596002701B6875
:1058A000BFF35F8F1A6081F31088002400250B4E30
:1058B0003078FBF7ADFB002804D100240025290037
:1058C000200070BD3078FBF7AFFBF8E7FA24002525
:1058D000A400ECE770790020327B0020317B0020AF
:1058E00070B5040000200E0001F022FB002835D026
:1058F000002001F033FB002830D0FCF7CDF9002365
:10590000184A12184B41002B24DB174D280013F0C6
:1059100043F9002822D0002001F00AFB00280BD117
:10592000012000210324404200F00AFD64422800C7
:1059300013F00AF9200070BD002001F00FFB0028D1
:10594000EED021003200002001F014FB041EEED145
:10595000033CECE70122054B5242D6E703246442A4
:10596000E8E7C04640420F00FC790020FFFFFF7FC0
:1059700010B5FCF791F900230E4A12184B41002B89
:1059800013DB0D4C200013F007F900280CD0012088
:105990000021404200F0D4FC002001F035FB00283B
:1059A000F5D1200013F0D0F810BD0122034B524274
:1059B000E7E7C04640420F00FC790020FFFFFF7F71
:1059C000F8B5DE46574680B505000C00FCF764F9D3
:1059D0000023364A12184B41002B5ADB3449080089
:1059E0008A4613F0D9F8002803D1C0BCBB46B246A2
:1059F000F8BD002001F09CFA00284ED00026002CB3
:105A000043DD2C4B9B4614E0A919002001F038FB24
:105A1000070001200021404200F092FC002001F02C
:105A2000F3FAFCF739F9234BF61918605960B442C0
:105A30002BDD002001F046FBA71B0200B84200DD71
:105A40003A00002AE0D101200021404200F078FC19
:105A5000002001F0D9FA002001F06AFA002814D0E1
:105A6000002001F02FFB0028E1D1FCF715F95B467F
:105A70000F001A685B68002184460F4812184B41DA
:105A80009F4202D8D3D19445D1D9504613F05CF847
:105A9000ABE70122094B5242A0E700200021054B51
:105AA00018605960504613F04FF89EE740420F00CF
:105AB000FC7900207867002020A10700FFFFFF7F0E
:105AC00030B52A4C85B00021200013F055F800288D
:105AD0001CD1274B1A68002A16D0EFF3108172B63A
